{
	"contracts/Todo.sol": {
		"TodoApp": {
			"abi": [
				{
					"anonymous": false,
					"inputs": [
						{
							"indexed": true,
							"internalType": "address",
							"name": "userAddress",
							"type": "address"
						},
						{
							"indexed": false,
							"internalType": "uint256",
							"name": "todoId",
							"type": "uint256"
						}
					],
					"name": "TodoCompleted",
					"type": "event"
				},
				{
					"anonymous": false,
					"inputs": [
						{
							"indexed": true,
							"internalType": "address",
							"name": "userAddress",
							"type": "address"
						},
						{
							"indexed": false,
							"internalType": "uint256",
							"name": "todoId",
							"type": "uint256"
						}
					],
					"name": "TodoCreated",
					"type": "event"
				},
				{
					"anonymous": false,
					"inputs": [
						{
							"indexed": true,
							"internalType": "address",
							"name": "userAddress",
							"type": "address"
						}
					],
					"name": "UserRegistered",
					"type": "event"
				},
				{
					"inputs": [
						{
							"internalType": "string",
							"name": "_content",
							"type": "string"
						}
					],
					"name": "createTodo",
					"outputs": [],
					"stateMutability": "nonpayable",
					"type": "function"
				},
				{
					"inputs": [],
					"name": "getUserTodos",
					"outputs": [
						{
							"components": [
								{
									"internalType": "uint256",
									"name": "id",
									"type": "uint256"
								},
								{
									"internalType": "string",
									"name": "content",
									"type": "string"
								},
								{
									"internalType": "bool",
									"name": "completed",
									"type": "bool"
								}
							],
							"internalType": "struct TodoApp.Todo[]",
							"name": "",
							"type": "tuple[]"
						}
					],
					"stateMutability": "view",
					"type": "function"
				},
				{
					"inputs": [
						{
							"internalType": "address",
							"name": "_user",
							"type": "address"
						}
					],
					"name": "isUserRegistered",
					"outputs": [
						{
							"internalType": "bool",
							"name": "",
							"type": "bool"
						}
					],
					"stateMutability": "view",
					"type": "function"
				},
				{
					"inputs": [],
					"name": "registerUser",
					"outputs": [],
					"stateMutability": "nonpayable",
					"type": "function"
				},
				{
					"inputs": [
						{
							"internalType": "uint256",
							"name": "_todoId",
							"type": "uint256"
						}
					],
					"name": "toggleTodoCompleted",
					"outputs": [],
					"stateMutability": "nonpayable",
					"type": "function"
				}
			],
			"devdoc": {
				"kind": "dev",
				"methods": {},
				"version": 1
			},
			"evm": {
				"assembly": "    /* \"contracts/Todo.sol\":57:1857  contract TodoApp {... */\n  mstore(0x40, 0x80)\n  callvalue\n  dup1\n  iszero\n  tag_1\n  jumpi\n  0x00\n  dup1\n  revert\ntag_1:\n  pop\n  dataSize(sub_0)\n  dup1\n  dataOffset(sub_0)\n  0x00\n  codecopy\n  0x00\n  return\nstop\n\nsub_0: assembly {\n        /* \"contracts/Todo.sol\":57:1857  contract TodoApp {... */\n      mstore(0x40, 0x80)\n      callvalue\n      dup1\n      iszero\n      tag_1\n      jumpi\n      0x00\n      dup1\n      revert\n    tag_1:\n      pop\n      jumpi(tag_2, lt(calldatasize, 0x04))\n      shr(0xe0, calldataload(0x00))\n      dup1\n      0x163f7522\n      eq\n      tag_3\n      jumpi\n      dup1\n      0x4d3820eb\n      eq\n      tag_4\n      jumpi\n      dup1\n      0x5de2fa75\n      eq\n      tag_5\n      jumpi\n      dup1\n      0xa8cb5705\n      eq\n      tag_6\n      jumpi\n      dup1\n      0xe34f1221\n      eq\n      tag_7\n      jumpi\n    tag_2:\n      0x00\n      dup1\n      revert\n        /* \"contracts/Todo.sol\":1736:1855  function isUserRegistered(address _user) external view returns (bool) {... */\n    tag_3:\n      tag_8\n      0x04\n      dup1\n      calldatasize\n      sub\n      dup2\n      add\n      swap1\n      tag_9\n      swap2\n      swap1\n      tag_10\n      jump\t// in\n    tag_9:\n      tag_11\n      jump\t// in\n    tag_8:\n      mload(0x40)\n      tag_12\n      swap2\n      swap1\n      tag_13\n      jump\t// in\n    tag_12:\n      mload(0x40)\n      dup1\n      swap2\n      sub\n      swap1\n      return\n        /* \"contracts/Todo.sol\":662:955  function registerUser() external {... */\n    tag_4:\n      tag_14\n      tag_15\n      jump\t// in\n    tag_14:\n      stop\n        /* \"contracts/Todo.sol\":1604:1730  function getUserTodos() external view onlyRegisteredUser returns (Todo[] memory) {... */\n    tag_5:\n      tag_16\n      tag_17\n      jump\t// in\n    tag_16:\n      mload(0x40)\n      tag_18\n      swap2\n      swap1\n      tag_19\n      jump\t// in\n    tag_18:\n      mload(0x40)\n      dup1\n      swap2\n      sub\n      swap1\n      return\n        /* \"contracts/Todo.sol\":1292:1598  function toggleTodoCompleted(uint _todoId) external onlyRegisteredUser {... */\n    tag_6:\n      tag_20\n      0x04\n      dup1\n      calldatasize\n      sub\n      dup2\n      add\n      swap1\n      tag_21\n      swap2\n      swap1\n      tag_22\n      jump\t// in\n    tag_21:\n      tag_23\n      jump\t// in\n    tag_20:\n      stop\n        /* \"contracts/Todo.sol\":961:1286  function createTodo(string memory _content) external onlyRegisteredUser {... */\n    tag_7:\n      tag_24\n      0x04\n      dup1\n      calldatasize\n      sub\n      dup2\n      add\n      swap1\n      tag_25\n      swap2\n      swap1\n      tag_26\n      jump\t// in\n    tag_25:\n      tag_27\n      jump\t// in\n    tag_24:\n      stop\n        /* \"contracts/Todo.sol\":1736:1855  function isUserRegistered(address _user) external view returns (bool) {... */\n    tag_11:\n        /* \"contracts/Todo.sol\":1800:1804  bool */\n      0x00\n        /* \"contracts/Todo.sol\":1823:1828  users */\n      dup1\n        /* \"contracts/Todo.sol\":1823:1835  users[_user] */\n      0x00\n        /* \"contracts/Todo.sol\":1829:1834  _user */\n      dup4\n        /* \"contracts/Todo.sol\":1823:1835  users[_user] */\n      0xffffffffffffffffffffffffffffffffffffffff\n      and\n      0xffffffffffffffffffffffffffffffffffffffff\n      and\n      dup2\n      mstore\n      0x20\n      add\n      swap1\n      dup2\n      mstore\n      0x20\n      add\n      0x00\n      keccak256\n        /* \"contracts/Todo.sol\":1823:1848  users[_user].isRegistered */\n      0x00\n      add\n      0x14\n      swap1\n      sload\n      swap1\n      0x0100\n      exp\n      swap1\n      div\n      0xff\n      and\n        /* \"contracts/Todo.sol\":1816:1848  return users[_user].isRegistered */\n      swap1\n      pop\n        /* \"contracts/Todo.sol\":1736:1855  function isUserRegistered(address _user) external view returns (bool) {... */\n      swap2\n      swap1\n      pop\n      jump\t// out\n        /* \"contracts/Todo.sol\":662:955  function registerUser() external {... */\n    tag_15:\n        /* \"contracts/Todo.sol\":714:719  users */\n      0x00\n        /* \"contracts/Todo.sol\":714:731  users[msg.sender] */\n      dup1\n        /* \"contracts/Todo.sol\":720:730  msg.sender */\n      caller\n        /* \"contracts/Todo.sol\":714:731  users[msg.sender] */\n      0xffffffffffffffffffffffffffffffffffffffff\n      and\n      0xffffffffffffffffffffffffffffffffffffffff\n      and\n      dup2\n      mstore\n      0x20\n      add\n      swap1\n      dup2\n      mstore\n      0x20\n      add\n      0x00\n      keccak256\n        /* \"contracts/Todo.sol\":714:744  users[msg.sender].isRegistered */\n      0x00\n      add\n      0x14\n      swap1\n      sload\n      swap1\n      0x0100\n      exp\n      swap1\n      div\n      0xff\n      and\n        /* \"contracts/Todo.sol\":713:744  !users[msg.sender].isRegistered */\n      iszero\n        /* \"contracts/Todo.sol\":705:772  require(!users[msg.sender].isRegistered, \"User already registered\") */\n      tag_30\n      jumpi\n      mload(0x40)\n      0x08c379a000000000000000000000000000000000000000000000000000000000\n      dup2\n      mstore\n      0x04\n      add\n      tag_31\n      swap1\n      tag_32\n      jump\t// in\n    tag_31:\n      mload(0x40)\n      dup1\n      swap2\n      sub\n      swap1\n      revert\n    tag_30:\n        /* \"contracts/Todo.sol\":811:898  User({... */\n      mload(0x40)\n      dup1\n      0x40\n      add\n      0x40\n      mstore\n      dup1\n        /* \"contracts/Todo.sol\":845:855  msg.sender */\n      caller\n        /* \"contracts/Todo.sol\":811:898  User({... */\n      0xffffffffffffffffffffffffffffffffffffffff\n      and\n      dup2\n      mstore\n      0x20\n      add\n        /* \"contracts/Todo.sol\":883:887  true */\n      0x01\n        /* \"contracts/Todo.sol\":811:898  User({... */\n      iszero\n      iszero\n      dup2\n      mstore\n      pop\n        /* \"contracts/Todo.sol\":791:796  users */\n      0x00\n        /* \"contracts/Todo.sol\":791:808  users[msg.sender] */\n      dup1\n        /* \"contracts/Todo.sol\":797:807  msg.sender */\n      caller\n        /* \"contracts/Todo.sol\":791:808  users[msg.sender] */\n      0xffffffffffffffffffffffffffffffffffffffff\n      and\n      0xffffffffffffffffffffffffffffffffffffffff\n      and\n      dup2\n      mstore\n      0x20\n      add\n      swap1\n      dup2\n      mstore\n      0x20\n      add\n      0x00\n      keccak256\n        /* \"contracts/Todo.sol\":791:898  users[msg.sender] = User({... */\n      0x00\n      dup3\n      add\n      mload\n      dup2\n      0x00\n      add\n      exp(0x0100, 0x00)\n      dup2\n      sload\n      dup2\n      0xffffffffffffffffffffffffffffffffffffffff\n      mul\n      not\n      and\n      swap1\n      dup4\n      0xffffffffffffffffffffffffffffffffffffffff\n      and\n      mul\n      or\n      swap1\n      sstore\n      pop\n      0x20\n      dup3\n      add\n      mload\n      dup2\n      0x00\n      add\n      exp(0x0100, 0x14)\n      dup2\n      sload\n      dup2\n      0xff\n      mul\n      not\n      and\n      swap1\n      dup4\n      iszero\n      iszero\n      mul\n      or\n      swap1\n      sstore\n      pop\n      swap1\n      pop\n      pop\n        /* \"contracts/Todo.sol\":937:947  msg.sender */\n      caller\n        /* \"contracts/Todo.sol\":922:948  UserRegistered(msg.sender) */\n      0xffffffffffffffffffffffffffffffffffffffff\n      and\n      0x54db7a5cb4735e1aac1f53db512d3390390bb6637bd30ad4bf9fc98667d9b9b9\n      mload(0x40)\n      mload(0x40)\n      dup1\n      swap2\n      sub\n      swap1\n      log2\n        /* \"contracts/Todo.sol\":662:955  function registerUser() external {... */\n      jump\t// out\n        /* \"contracts/Todo.sol\":1604:1730  function getUserTodos() external view onlyRegisteredUser returns (Todo[] memory) {... */\n    tag_17:\n        /* \"contracts/Todo.sol\":1670:1683  Todo[] memory */\n      0x60\n        /* \"contracts/Todo.sol\":584:589  users */\n      0x00\n        /* \"contracts/Todo.sol\":584:601  users[msg.sender] */\n      dup1\n        /* \"contracts/Todo.sol\":590:600  msg.sender */\n      caller\n        /* \"contracts/Todo.sol\":584:601  users[msg.sender] */\n      0xffffffffffffffffffffffffffffffffffffffff\n      and\n      0xffffffffffffffffffffffffffffffffffffffff\n      and\n      dup2\n      mstore\n      0x20\n      add\n      swap1\n      dup2\n      mstore\n      0x20\n      add\n      0x00\n      keccak256\n        /* \"contracts/Todo.sol\":584:614  users[msg.sender].isRegistered */\n      0x00\n      add\n      0x14\n      swap1\n      sload\n      swap1\n      0x0100\n      exp\n      swap1\n      div\n      0xff\n      and\n        /* \"contracts/Todo.sol\":576:638  require(users[msg.sender].isRegistered, \"User not registered\") */\n      tag_34\n      jumpi\n      mload(0x40)\n      0x08c379a000000000000000000000000000000000000000000000000000000000\n      dup2\n      mstore\n      0x04\n      add\n      tag_35\n      swap1\n      tag_36\n      jump\t// in\n    tag_35:\n      mload(0x40)\n      dup1\n      swap2\n      sub\n      swap1\n      revert\n    tag_34:\n        /* \"contracts/Todo.sol\":1702:1711  userTodos */\n      0x01\n        /* \"contracts/Todo.sol\":1702:1723  userTodos[msg.sender] */\n      0x00\n        /* \"contracts/Todo.sol\":1712:1722  msg.sender */\n      caller\n        /* \"contracts/Todo.sol\":1702:1723  userTodos[msg.sender] */\n      0xffffffffffffffffffffffffffffffffffffffff\n      and\n      0xffffffffffffffffffffffffffffffffffffffff\n      and\n      dup2\n      mstore\n      0x20\n      add\n      swap1\n      dup2\n      mstore\n      0x20\n      add\n      0x00\n      keccak256\n        /* \"contracts/Todo.sol\":1695:1723  return userTodos[msg.sender] */\n      dup1\n      sload\n      dup1\n      0x20\n      mul\n      0x20\n      add\n      mload(0x40)\n      swap1\n      dup2\n      add\n      0x40\n      mstore\n      dup1\n      swap3\n      swap2\n      swap1\n      dup2\n      dup2\n      mstore\n      0x20\n      add\n      0x00\n      swap1\n    tag_38:\n      dup3\n      dup3\n      lt\n      iszero\n      tag_39\n      jumpi\n      dup4\n      dup3\n      swap1\n      0x00\n      mstore\n      keccak256(0x00, 0x20)\n      swap1\n      0x03\n      mul\n      add\n      mload(0x40)\n      dup1\n      0x60\n      add\n      0x40\n      mstore\n      swap1\n      dup2\n      0x00\n      dup3\n      add\n      sload\n      dup2\n      mstore\n      0x20\n      add\n      0x01\n      dup3\n      add\n      dup1\n      sload\n      tag_41\n      swap1\n      tag_42\n      jump\t// in\n    tag_41:\n      dup1\n      0x1f\n      add\n      0x20\n      dup1\n      swap2\n      div\n      mul\n      0x20\n      add\n      mload(0x40)\n      swap1\n      dup2\n      add\n      0x40\n      mstore\n      dup1\n      swap3\n      swap2\n      swap1\n      dup2\n      dup2\n      mstore\n      0x20\n      add\n      dup3\n      dup1\n      sload\n      tag_43\n      swap1\n      tag_42\n      jump\t// in\n    tag_43:\n      dup1\n      iszero\n      tag_44\n      jumpi\n      dup1\n      0x1f\n      lt\n      tag_45\n      jumpi\n      0x0100\n      dup1\n      dup4\n      sload\n      div\n      mul\n      dup4\n      mstore\n      swap2\n      0x20\n      add\n      swap2\n      jump(tag_44)\n    tag_45:\n      dup3\n      add\n      swap2\n      swap1\n      0x00\n      mstore\n      keccak256(0x00, 0x20)\n      swap1\n    tag_46:\n      dup2\n      sload\n      dup2\n      mstore\n      swap1\n      0x01\n      add\n      swap1\n      0x20\n      add\n      dup1\n      dup4\n      gt\n      tag_46\n      jumpi\n      dup3\n      swap1\n      sub\n      0x1f\n      and\n      dup3\n      add\n      swap2\n    tag_44:\n      pop\n      pop\n      pop\n      pop\n      pop\n      dup2\n      mstore\n      0x20\n      add\n      0x02\n      dup3\n      add\n      0x00\n      swap1\n      sload\n      swap1\n      0x0100\n      exp\n      swap1\n      div\n      0xff\n      and\n      iszero\n      iszero\n      iszero\n      iszero\n      dup2\n      mstore\n      pop\n      pop\n      dup2\n      mstore\n      0x20\n      add\n      swap1\n      0x01\n      add\n      swap1\n      jump(tag_38)\n    tag_39:\n      pop\n      pop\n      pop\n      pop\n      swap1\n      pop\n        /* \"contracts/Todo.sol\":1604:1730  function getUserTodos() external view onlyRegisteredUser returns (Todo[] memory) {... */\n      swap1\n      jump\t// out\n        /* \"contracts/Todo.sol\":1292:1598  function toggleTodoCompleted(uint _todoId) external onlyRegisteredUser {... */\n    tag_23:\n        /* \"contracts/Todo.sol\":584:589  users */\n      0x00\n        /* \"contracts/Todo.sol\":584:601  users[msg.sender] */\n      dup1\n        /* \"contracts/Todo.sol\":590:600  msg.sender */\n      caller\n        /* \"contracts/Todo.sol\":584:601  users[msg.sender] */\n      0xffffffffffffffffffffffffffffffffffffffff\n      and\n      0xffffffffffffffffffffffffffffffffffffffff\n      and\n      dup2\n      mstore\n      0x20\n      add\n      swap1\n      dup2\n      mstore\n      0x20\n      add\n      0x00\n      keccak256\n        /* \"contracts/Todo.sol\":584:614  users[msg.sender].isRegistered */\n      0x00\n      add\n      0x14\n      swap1\n      sload\n      swap1\n      0x0100\n      exp\n      swap1\n      div\n      0xff\n      and\n        /* \"contracts/Todo.sol\":576:638  require(users[msg.sender].isRegistered, \"User not registered\") */\n      tag_48\n      jumpi\n      mload(0x40)\n      0x08c379a000000000000000000000000000000000000000000000000000000000\n      dup2\n      mstore\n      0x04\n      add\n      tag_49\n      swap1\n      tag_36\n      jump\t// in\n    tag_49:\n      mload(0x40)\n      dup1\n      swap2\n      sub\n      swap1\n      revert\n    tag_48:\n        /* \"contracts/Todo.sol\":1391:1400  userTodos */\n      0x01\n        /* \"contracts/Todo.sol\":1391:1412  userTodos[msg.sender] */\n      0x00\n        /* \"contracts/Todo.sol\":1401:1411  msg.sender */\n      caller\n        /* \"contracts/Todo.sol\":1391:1412  userTodos[msg.sender] */\n      0xffffffffffffffffffffffffffffffffffffffff\n      and\n      0xffffffffffffffffffffffffffffffffffffffff\n      and\n      dup2\n      mstore\n      0x20\n      add\n      swap1\n      dup2\n      mstore\n      0x20\n      add\n      0x00\n      keccak256\n        /* \"contracts/Todo.sol\":1391:1419  userTodos[msg.sender].length */\n      dup1\n      sload\n      swap1\n      pop\n        /* \"contracts/Todo.sol\":1381:1388  _todoId */\n      dup2\n        /* \"contracts/Todo.sol\":1381:1419  _todoId < userTodos[msg.sender].length */\n      lt\n        /* \"contracts/Todo.sol\":1373:1439  require(_todoId < userTodos[msg.sender].length, \"Invalid todo ID\") */\n      tag_51\n      jumpi\n      mload(0x40)\n      0x08c379a000000000000000000000000000000000000000000000000000000000\n      dup2\n      mstore\n      0x04\n      add\n      tag_52\n      swap1\n      tag_53\n      jump\t// in\n    tag_52:\n      mload(0x40)\n      dup1\n      swap2\n      sub\n      swap1\n      revert\n    tag_51:\n        /* \"contracts/Todo.sol\":1493:1502  userTodos */\n      0x01\n        /* \"contracts/Todo.sol\":1493:1514  userTodos[msg.sender] */\n      0x00\n        /* \"contracts/Todo.sol\":1503:1513  msg.sender */\n      caller\n        /* \"contracts/Todo.sol\":1493:1514  userTodos[msg.sender] */\n      0xffffffffffffffffffffffffffffffffffffffff\n      and\n      0xffffffffffffffffffffffffffffffffffffffff\n      and\n      dup2\n      mstore\n      0x20\n      add\n      swap1\n      dup2\n      mstore\n      0x20\n      add\n      0x00\n      keccak256\n        /* \"contracts/Todo.sol\":1515:1522  _todoId */\n      dup2\n        /* \"contracts/Todo.sol\":1493:1523  userTodos[msg.sender][_todoId] */\n      dup2\n      sload\n      dup2\n      lt\n      tag_54\n      jumpi\n      tag_55\n      tag_56\n      jump\t// in\n    tag_55:\n    tag_54:\n      swap1\n      0x00\n      mstore\n      keccak256(0x00, 0x20)\n      swap1\n      0x03\n      mul\n      add\n        /* \"contracts/Todo.sol\":1493:1533  userTodos[msg.sender][_todoId].completed */\n      0x02\n      add\n      0x00\n      swap1\n      sload\n      swap1\n      0x0100\n      exp\n      swap1\n      div\n      0xff\n      and\n        /* \"contracts/Todo.sol\":1492:1533  !userTodos[msg.sender][_todoId].completed */\n      iszero\n        /* \"contracts/Todo.sol\":1449:1458  userTodos */\n      0x01\n        /* \"contracts/Todo.sol\":1449:1470  userTodos[msg.sender] */\n      0x00\n        /* \"contracts/Todo.sol\":1459:1469  msg.sender */\n      caller\n        /* \"contracts/Todo.sol\":1449:1470  userTodos[msg.sender] */\n      0xffffffffffffffffffffffffffffffffffffffff\n      and\n      0xffffffffffffffffffffffffffffffffffffffff\n      and\n      dup2\n      mstore\n      0x20\n      add\n      swap1\n      dup2\n      mstore\n      0x20\n      add\n      0x00\n      keccak256\n        /* \"contracts/Todo.sol\":1471:1478  _todoId */\n      dup3\n        /* \"contracts/Todo.sol\":1449:1479  userTodos[msg.sender][_todoId] */\n      dup2\n      sload\n      dup2\n      lt\n      tag_58\n      jumpi\n      tag_59\n      tag_56\n      jump\t// in\n    tag_59:\n    tag_58:\n      swap1\n      0x00\n      mstore\n      keccak256(0x00, 0x20)\n      swap1\n      0x03\n      mul\n      add\n        /* \"contracts/Todo.sol\":1449:1489  userTodos[msg.sender][_todoId].completed */\n      0x02\n      add\n      0x00\n        /* \"contracts/Todo.sol\":1449:1533  userTodos[msg.sender][_todoId].completed = !userTodos[msg.sender][_todoId].completed */\n      0x0100\n      exp\n      dup2\n      sload\n      dup2\n      0xff\n      mul\n      not\n      and\n      swap1\n      dup4\n      iszero\n      iszero\n      mul\n      or\n      swap1\n      sstore\n      pop\n        /* \"contracts/Todo.sol\":1571:1581  msg.sender */\n      caller\n        /* \"contracts/Todo.sol\":1557:1591  TodoCompleted(msg.sender, _todoId) */\n      0xffffffffffffffffffffffffffffffffffffffff\n      and\n      0x67ded622a190b565ce61203d9279a5c28931773c0919bf91ce964f6cd909e9b4\n        /* \"contracts/Todo.sol\":1583:1590  _todoId */\n      dup3\n        /* \"contracts/Todo.sol\":1557:1591  TodoCompleted(msg.sender, _todoId) */\n      mload(0x40)\n      tag_61\n      swap2\n      swap1\n      tag_62\n      jump\t// in\n    tag_61:\n      mload(0x40)\n      dup1\n      swap2\n      sub\n      swap1\n      log2\n        /* \"contracts/Todo.sol\":1292:1598  function toggleTodoCompleted(uint _todoId) external onlyRegisteredUser {... */\n      pop\n      jump\t// out\n        /* \"contracts/Todo.sol\":961:1286  function createTodo(string memory _content) external onlyRegisteredUser {... */\n    tag_27:\n        /* \"contracts/Todo.sol\":584:589  users */\n      0x00\n        /* \"contracts/Todo.sol\":584:601  users[msg.sender] */\n      dup1\n        /* \"contracts/Todo.sol\":590:600  msg.sender */\n      caller\n        /* \"contracts/Todo.sol\":584:601  users[msg.sender] */\n      0xffffffffffffffffffffffffffffffffffffffff\n      and\n      0xffffffffffffffffffffffffffffffffffffffff\n      and\n      dup2\n      mstore\n      0x20\n      add\n      swap1\n      dup2\n      mstore\n      0x20\n      add\n      0x00\n      keccak256\n        /* \"contracts/Todo.sol\":584:614  users[msg.sender].isRegistered */\n      0x00\n      add\n      0x14\n      swap1\n      sload\n      swap1\n      0x0100\n      exp\n      swap1\n      div\n      0xff\n      and\n        /* \"contracts/Todo.sol\":576:638  require(users[msg.sender].isRegistered, \"User not registered\") */\n      tag_64\n      jumpi\n      mload(0x40)\n      0x08c379a000000000000000000000000000000000000000000000000000000000\n      dup2\n      mstore\n      0x04\n      add\n      tag_65\n      swap1\n      tag_36\n      jump\t// in\n    tag_65:\n      mload(0x40)\n      dup1\n      swap2\n      sub\n      swap1\n      revert\n    tag_64:\n        /* \"contracts/Todo.sol\":1043:1054  uint todoId */\n      0x00\n        /* \"contracts/Todo.sol\":1057:1066  userTodos */\n      0x01\n        /* \"contracts/Todo.sol\":1057:1078  userTodos[msg.sender] */\n      0x00\n        /* \"contracts/Todo.sol\":1067:1077  msg.sender */\n      caller\n        /* \"contracts/Todo.sol\":1057:1078  userTodos[msg.sender] */\n      0xffffffffffffffffffffffffffffffffffffffff\n      and\n      0xffffffffffffffffffffffffffffffffffffffff\n      and\n      dup2\n      mstore\n      0x20\n      add\n      swap1\n      dup2\n      mstore\n      0x20\n      add\n      0x00\n      keccak256\n        /* \"contracts/Todo.sol\":1057:1085  userTodos[msg.sender].length */\n      dup1\n      sload\n      swap1\n      pop\n        /* \"contracts/Todo.sol\":1043:1085  uint todoId = userTodos[msg.sender].length */\n      swap1\n      pop\n        /* \"contracts/Todo.sol\":1095:1104  userTodos */\n      0x01\n        /* \"contracts/Todo.sol\":1095:1116  userTodos[msg.sender] */\n      0x00\n        /* \"contracts/Todo.sol\":1105:1115  msg.sender */\n      caller\n        /* \"contracts/Todo.sol\":1095:1116  userTodos[msg.sender] */\n      0xffffffffffffffffffffffffffffffffffffffff\n      and\n      0xffffffffffffffffffffffffffffffffffffffff\n      and\n      dup2\n      mstore\n      0x20\n      add\n      swap1\n      dup2\n      mstore\n      0x20\n      add\n      0x00\n      keccak256\n        /* \"contracts/Todo.sol\":1122:1223  Todo({... */\n      mload(0x40)\n      dup1\n      0x60\n      add\n      0x40\n      mstore\n      dup1\n        /* \"contracts/Todo.sol\":1145:1151  todoId */\n      dup4\n        /* \"contracts/Todo.sol\":1122:1223  Todo({... */\n      dup2\n      mstore\n      0x20\n      add\n        /* \"contracts/Todo.sol\":1174:1182  _content */\n      dup5\n        /* \"contracts/Todo.sol\":1122:1223  Todo({... */\n      dup2\n      mstore\n      0x20\n      add\n        /* \"contracts/Todo.sol\":1207:1212  false */\n      0x00\n        /* \"contracts/Todo.sol\":1122:1223  Todo({... */\n      iszero\n      iszero\n      dup2\n      mstore\n      pop\n        /* \"contracts/Todo.sol\":1095:1224  userTodos[msg.sender].push(Todo({... */\n      swap1\n      dup1\n      0x01\n      dup2\n      sload\n      add\n      dup1\n      dup3\n      sstore\n      dup1\n      swap2\n      pop\n      pop\n      0x01\n      swap1\n      sub\n      swap1\n      0x00\n      mstore\n      keccak256(0x00, 0x20)\n      swap1\n      0x03\n      mul\n      add\n      0x00\n      swap1\n      swap2\n      swap1\n      swap2\n      swap1\n      swap2\n      pop\n      0x00\n      dup3\n      add\n      mload\n      dup2\n      0x00\n      add\n      sstore\n      0x20\n      dup3\n      add\n      mload\n      dup2\n      0x01\n      add\n      swap1\n      dup2\n      tag_68\n      swap2\n      swap1\n      tag_69\n      jump\t// in\n    tag_68:\n      pop\n      0x40\n      dup3\n      add\n      mload\n      dup2\n      0x02\n      add\n      exp(0x0100, 0x00)\n      dup2\n      sload\n      dup2\n      0xff\n      mul\n      not\n      and\n      swap1\n      dup4\n      iszero\n      iszero\n      mul\n      or\n      swap1\n      sstore\n      pop\n      pop\n      pop\n        /* \"contracts/Todo.sol\":1260:1270  msg.sender */\n      caller\n        /* \"contracts/Todo.sol\":1248:1279  TodoCreated(msg.sender, todoId) */\n      0xffffffffffffffffffffffffffffffffffffffff\n      and\n      0xe1b6ebe529a4c04654a36a99a3a625c397b21584237ffc09bc6ada36fa5b65f7\n        /* \"contracts/Todo.sol\":1272:1278  todoId */\n      dup3\n        /* \"contracts/Todo.sol\":1248:1279  TodoCreated(msg.sender, todoId) */\n      mload(0x40)\n      tag_70\n      swap2\n      swap1\n      tag_62\n      jump\t// in\n    tag_70:\n      mload(0x40)\n      dup1\n      swap2\n      sub\n      swap1\n      log2\n        /* \"contracts/Todo.sol\":1033:1286  {... */\n      pop\n        /* \"contracts/Todo.sol\":961:1286  function createTodo(string memory _content) external onlyRegisteredUser {... */\n      pop\n      jump\t// out\n        /* \"#utility.yul\":7:82   */\n    tag_71:\n        /* \"#utility.yul\":40:46   */\n      0x00\n        /* \"#utility.yul\":73:75   */\n      0x40\n        /* \"#utility.yul\":67:76   */\n      mload\n        /* \"#utility.yul\":57:76   */\n      swap1\n      pop\n        /* \"#utility.yul\":7:82   */\n      swap1\n      jump\t// out\n        /* \"#utility.yul\":88:205   */\n    tag_72:\n        /* \"#utility.yul\":197:198   */\n      0x00\n        /* \"#utility.yul\":194:195   */\n      dup1\n        /* \"#utility.yul\":187:199   */\n      revert\n        /* \"#utility.yul\":211:328   */\n    tag_73:\n        /* \"#utility.yul\":320:321   */\n      0x00\n        /* \"#utility.yul\":317:318   */\n      dup1\n        /* \"#utility.yul\":310:322   */\n      revert\n        /* \"#utility.yul\":334:460   */\n    tag_74:\n        /* \"#utility.yul\":371:378   */\n      0x00\n        /* \"#utility.yul\":411:453   */\n      0xffffffffffffffffffffffffffffffffffffffff\n        /* \"#utility.yul\":404:409   */\n      dup3\n        /* \"#utility.yul\":400:454   */\n      and\n        /* \"#utility.yul\":389:454   */\n      swap1\n      pop\n        /* \"#utility.yul\":334:460   */\n      swap2\n      swap1\n      pop\n      jump\t// out\n        /* \"#utility.yul\":466:562   */\n    tag_75:\n        /* \"#utility.yul\":503:510   */\n      0x00\n        /* \"#utility.yul\":532:556   */\n      tag_136\n        /* \"#utility.yul\":550:555   */\n      dup3\n        /* \"#utility.yul\":532:556   */\n      tag_74\n      jump\t// in\n    tag_136:\n        /* \"#utility.yul\":521:556   */\n      swap1\n      pop\n        /* \"#utility.yul\":466:562   */\n      swap2\n      swap1\n      pop\n      jump\t// out\n        /* \"#utility.yul\":568:690   */\n    tag_76:\n        /* \"#utility.yul\":641:665   */\n      tag_138\n        /* \"#utility.yul\":659:664   */\n      dup2\n        /* \"#utility.yul\":641:665   */\n      tag_75\n      jump\t// in\n    tag_138:\n        /* \"#utility.yul\":634:639   */\n      dup2\n        /* \"#utility.yul\":631:666   */\n      eq\n        /* \"#utility.yul\":621:684   */\n      tag_139\n      jumpi\n        /* \"#utility.yul\":680:681   */\n      0x00\n        /* \"#utility.yul\":677:678   */\n      dup1\n        /* \"#utility.yul\":670:682   */\n      revert\n        /* \"#utility.yul\":621:684   */\n    tag_139:\n        /* \"#utility.yul\":568:690   */\n      pop\n      jump\t// out\n        /* \"#utility.yul\":696:835   */\n    tag_77:\n        /* \"#utility.yul\":742:747   */\n      0x00\n        /* \"#utility.yul\":780:786   */\n      dup2\n        /* \"#utility.yul\":767:787   */\n      calldataload\n        /* \"#utility.yul\":758:787   */\n      swap1\n      pop\n        /* \"#utility.yul\":796:829   */\n      tag_141\n        /* \"#utility.yul\":823:828   */\n      dup2\n        /* \"#utility.yul\":796:829   */\n      tag_76\n      jump\t// in\n    tag_141:\n        /* \"#utility.yul\":696:835   */\n      swap3\n      swap2\n      pop\n      pop\n      jump\t// out\n        /* \"#utility.yul\":841:1170   */\n    tag_10:\n        /* \"#utility.yul\":900:906   */\n      0x00\n        /* \"#utility.yul\":949:951   */\n      0x20\n        /* \"#utility.yul\":937:946   */\n      dup3\n        /* \"#utility.yul\":928:935   */\n      dup5\n        /* \"#utility.yul\":924:947   */\n      sub\n        /* \"#utility.yul\":920:952   */\n      slt\n        /* \"#utility.yul\":917:1036   */\n      iszero\n      tag_143\n      jumpi\n        /* \"#utility.yul\":955:1034   */\n      tag_144\n      tag_72\n      jump\t// in\n    tag_144:\n        /* \"#utility.yul\":917:1036   */\n    tag_143:\n        /* \"#utility.yul\":1075:1076   */\n      0x00\n        /* \"#utility.yul\":1100:1153   */\n      tag_145\n        /* \"#utility.yul\":1145:1152   */\n      dup5\n        /* \"#utility.yul\":1136:1142   */\n      dup3\n        /* \"#utility.yul\":1125:1134   */\n      dup6\n        /* \"#utility.yul\":1121:1143   */\n      add\n        /* \"#utility.yul\":1100:1153   */\n      tag_77\n      jump\t// in\n    tag_145:\n        /* \"#utility.yul\":1090:1153   */\n      swap2\n      pop\n        /* \"#utility.yul\":1046:1163   */\n      pop\n        /* \"#utility.yul\":841:1170   */\n      swap3\n      swap2\n      pop\n      pop\n      jump\t// out\n        /* \"#utility.yul\":1176:1266   */\n    tag_78:\n        /* \"#utility.yul\":1210:1217   */\n      0x00\n        /* \"#utility.yul\":1253:1258   */\n      dup2\n        /* \"#utility.yul\":1246:1259   */\n      iszero\n        /* \"#utility.yul\":1239:1260   */\n      iszero\n        /* \"#utility.yul\":1228:1260   */\n      swap1\n      pop\n        /* \"#utility.yul\":1176:1266   */\n      swap2\n      swap1\n      pop\n      jump\t// out\n        /* \"#utility.yul\":1272:1381   */\n    tag_79:\n        /* \"#utility.yul\":1353:1374   */\n      tag_148\n        /* \"#utility.yul\":1368:1373   */\n      dup2\n        /* \"#utility.yul\":1353:1374   */\n      tag_78\n      jump\t// in\n    tag_148:\n        /* \"#utility.yul\":1348:1351   */\n      dup3\n        /* \"#utility.yul\":1341:1375   */\n      mstore\n        /* \"#utility.yul\":1272:1381   */\n      pop\n      pop\n      jump\t// out\n        /* \"#utility.yul\":1387:1597   */\n    tag_13:\n        /* \"#utility.yul\":1474:1478   */\n      0x00\n        /* \"#utility.yul\":1512:1514   */\n      0x20\n        /* \"#utility.yul\":1501:1510   */\n      dup3\n        /* \"#utility.yul\":1497:1515   */\n      add\n        /* \"#utility.yul\":1489:1515   */\n      swap1\n      pop\n        /* \"#utility.yul\":1525:1590   */\n      tag_150\n        /* \"#utility.yul\":1587:1588   */\n      0x00\n        /* \"#utility.yul\":1576:1585   */\n      dup4\n        /* \"#utility.yul\":1572:1589   */\n      add\n        /* \"#utility.yul\":1563:1569   */\n      dup5\n        /* \"#utility.yul\":1525:1590   */\n      tag_79\n      jump\t// in\n    tag_150:\n        /* \"#utility.yul\":1387:1597   */\n      swap3\n      swap2\n      pop\n      pop\n      jump\t// out\n        /* \"#utility.yul\":1603:1737   */\n    tag_80:\n        /* \"#utility.yul\":1690:1696   */\n      0x00\n        /* \"#utility.yul\":1724:1729   */\n      dup2\n        /* \"#utility.yul\":1718:1730   */\n      mload\n        /* \"#utility.yul\":1708:1730   */\n      swap1\n      pop\n        /* \"#utility.yul\":1603:1737   */\n      swap2\n      swap1\n      pop\n      jump\t// out\n        /* \"#utility.yul\":1743:1947   */\n    tag_81:\n        /* \"#utility.yul\":1862:1873   */\n      0x00\n        /* \"#utility.yul\":1896:1902   */\n      dup3\n        /* \"#utility.yul\":1891:1894   */\n      dup3\n        /* \"#utility.yul\":1884:1903   */\n      mstore\n        /* \"#utility.yul\":1936:1940   */\n      0x20\n        /* \"#utility.yul\":1931:1934   */\n      dup3\n        /* \"#utility.yul\":1927:1941   */\n      add\n        /* \"#utility.yul\":1912:1941   */\n      swap1\n      pop\n        /* \"#utility.yul\":1743:1947   */\n      swap3\n      swap2\n      pop\n      pop\n      jump\t// out\n        /* \"#utility.yul\":1953:2105   */\n    tag_82:\n        /* \"#utility.yul\":2040:2044   */\n      0x00\n        /* \"#utility.yul\":2063:2066   */\n      dup2\n        /* \"#utility.yul\":2055:2066   */\n      swap1\n      pop\n        /* \"#utility.yul\":2093:2097   */\n      0x20\n        /* \"#utility.yul\":2088:2091   */\n      dup3\n        /* \"#utility.yul\":2084:2098   */\n      add\n        /* \"#utility.yul\":2076:2098   */\n      swap1\n      pop\n        /* \"#utility.yul\":1953:2105   */\n      swap2\n      swap1\n      pop\n      jump\t// out\n        /* \"#utility.yul\":2111:2188   */\n    tag_83:\n        /* \"#utility.yul\":2148:2155   */\n      0x00\n        /* \"#utility.yul\":2177:2182   */\n      dup2\n        /* \"#utility.yul\":2166:2182   */\n      swap1\n      pop\n        /* \"#utility.yul\":2111:2188   */\n      swap2\n      swap1\n      pop\n      jump\t// out\n        /* \"#utility.yul\":2194:2302   */\n    tag_84:\n        /* \"#utility.yul\":2271:2295   */\n      tag_156\n        /* \"#utility.yul\":2289:2294   */\n      dup2\n        /* \"#utility.yul\":2271:2295   */\n      tag_83\n      jump\t// in\n    tag_156:\n        /* \"#utility.yul\":2266:2269   */\n      dup3\n        /* \"#utility.yul\":2259:2296   */\n      mstore\n        /* \"#utility.yul\":2194:2302   */\n      pop\n      pop\n      jump\t// out\n        /* \"#utility.yul\":2308:2407   */\n    tag_85:\n        /* \"#utility.yul\":2360:2366   */\n      0x00\n        /* \"#utility.yul\":2394:2399   */\n      dup2\n        /* \"#utility.yul\":2388:2400   */\n      mload\n        /* \"#utility.yul\":2378:2400   */\n      swap1\n      pop\n        /* \"#utility.yul\":2308:2407   */\n      swap2\n      swap1\n      pop\n      jump\t// out\n        /* \"#utility.yul\":2413:2572   */\n    tag_86:\n        /* \"#utility.yul\":2487:2498   */\n      0x00\n        /* \"#utility.yul\":2521:2527   */\n      dup3\n        /* \"#utility.yul\":2516:2519   */\n      dup3\n        /* \"#utility.yul\":2509:2528   */\n      mstore\n        /* \"#utility.yul\":2561:2565   */\n      0x20\n        /* \"#utility.yul\":2556:2559   */\n      dup3\n        /* \"#utility.yul\":2552:2566   */\n      add\n        /* \"#utility.yul\":2537:2566   */\n      swap1\n      pop\n        /* \"#utility.yul\":2413:2572   */\n      swap3\n      swap2\n      pop\n      pop\n      jump\t// out\n        /* \"#utility.yul\":2578:2824   */\n    tag_87:\n        /* \"#utility.yul\":2659:2660   */\n      0x00\n        /* \"#utility.yul\":2669:2782   */\n    tag_160:\n        /* \"#utility.yul\":2683:2689   */\n      dup4\n        /* \"#utility.yul\":2680:2681   */\n      dup2\n        /* \"#utility.yul\":2677:2690   */\n      lt\n        /* \"#utility.yul\":2669:2782   */\n      iszero\n      tag_162\n      jumpi\n        /* \"#utility.yul\":2768:2769   */\n      dup1\n        /* \"#utility.yul\":2763:2766   */\n      dup3\n        /* \"#utility.yul\":2759:2770   */\n      add\n        /* \"#utility.yul\":2753:2771   */\n      mload\n        /* \"#utility.yul\":2749:2750   */\n      dup2\n        /* \"#utility.yul\":2744:2747   */\n      dup5\n        /* \"#utility.yul\":2740:2751   */\n      add\n        /* \"#utility.yul\":2733:2772   */\n      mstore\n        /* \"#utility.yul\":2705:2707   */\n      0x20\n        /* \"#utility.yul\":2702:2703   */\n      dup2\n        /* \"#utility.yul\":2698:2708   */\n      add\n        /* \"#utility.yul\":2693:2708   */\n      swap1\n      pop\n        /* \"#utility.yul\":2669:2782   */\n      jump(tag_160)\n    tag_162:\n        /* \"#utility.yul\":2816:2817   */\n      0x00\n        /* \"#utility.yul\":2807:2813   */\n      dup5\n        /* \"#utility.yul\":2802:2805   */\n      dup5\n        /* \"#utility.yul\":2798:2814   */\n      add\n        /* \"#utility.yul\":2791:2818   */\n      mstore\n        /* \"#utility.yul\":2640:2824   */\n      pop\n        /* \"#utility.yul\":2578:2824   */\n      pop\n      pop\n      pop\n      jump\t// out\n        /* \"#utility.yul\":2830:2932   */\n    tag_88:\n        /* \"#utility.yul\":2871:2877   */\n      0x00\n        /* \"#utility.yul\":2922:2924   */\n      0x1f\n        /* \"#utility.yul\":2918:2925   */\n      not\n        /* \"#utility.yul\":2913:2915   */\n      0x1f\n        /* \"#utility.yul\":2906:2911   */\n      dup4\n        /* \"#utility.yul\":2902:2916   */\n      add\n        /* \"#utility.yul\":2898:2926   */\n      and\n        /* \"#utility.yul\":2888:2926   */\n      swap1\n      pop\n        /* \"#utility.yul\":2830:2932   */\n      swap2\n      swap1\n      pop\n      jump\t// out\n        /* \"#utility.yul\":2938:3295   */\n    tag_89:\n        /* \"#utility.yul\":3016:3019   */\n      0x00\n        /* \"#utility.yul\":3044:3083   */\n      tag_165\n        /* \"#utility.yul\":3077:3082   */\n      dup3\n        /* \"#utility.yul\":3044:3083   */\n      tag_85\n      jump\t// in\n    tag_165:\n        /* \"#utility.yul\":3099:3160   */\n      tag_166\n        /* \"#utility.yul\":3153:3159   */\n      dup2\n        /* \"#utility.yul\":3148:3151   */\n      dup6\n        /* \"#utility.yul\":3099:3160   */\n      tag_86\n      jump\t// in\n    tag_166:\n        /* \"#utility.yul\":3092:3160   */\n      swap4\n      pop\n        /* \"#utility.yul\":3169:3234   */\n      tag_167\n        /* \"#utility.yul\":3227:3233   */\n      dup2\n        /* \"#utility.yul\":3222:3225   */\n      dup6\n        /* \"#utility.yul\":3215:3219   */\n      0x20\n        /* \"#utility.yul\":3208:3213   */\n      dup7\n        /* \"#utility.yul\":3204:3220   */\n      add\n        /* \"#utility.yul\":3169:3234   */\n      tag_87\n      jump\t// in\n    tag_167:\n        /* \"#utility.yul\":3259:3288   */\n      tag_168\n        /* \"#utility.yul\":3281:3287   */\n      dup2\n        /* \"#utility.yul\":3259:3288   */\n      tag_88\n      jump\t// in\n    tag_168:\n        /* \"#utility.yul\":3254:3257   */\n      dup5\n        /* \"#utility.yul\":3250:3289   */\n      add\n        /* \"#utility.yul\":3243:3289   */\n      swap2\n      pop\n        /* \"#utility.yul\":3020:3295   */\n      pop\n        /* \"#utility.yul\":2938:3295   */\n      swap3\n      swap2\n      pop\n      pop\n      jump\t// out\n        /* \"#utility.yul\":3301:3400   */\n    tag_90:\n        /* \"#utility.yul\":3372:3393   */\n      tag_170\n        /* \"#utility.yul\":3387:3392   */\n      dup2\n        /* \"#utility.yul\":3372:3393   */\n      tag_78\n      jump\t// in\n    tag_170:\n        /* \"#utility.yul\":3367:3370   */\n      dup3\n        /* \"#utility.yul\":3360:3394   */\n      mstore\n        /* \"#utility.yul\":3301:3400   */\n      pop\n      pop\n      jump\t// out\n        /* \"#utility.yul\":3456:4216   */\n    tag_91:\n        /* \"#utility.yul\":3555:3558   */\n      0x00\n        /* \"#utility.yul\":3591:3595   */\n      0x60\n        /* \"#utility.yul\":3586:3589   */\n      dup4\n        /* \"#utility.yul\":3582:3596   */\n      add\n        /* \"#utility.yul\":3676:3680   */\n      0x00\n        /* \"#utility.yul\":3669:3674   */\n      dup4\n        /* \"#utility.yul\":3665:3681   */\n      add\n        /* \"#utility.yul\":3659:3682   */\n      mload\n        /* \"#utility.yul\":3695:3758   */\n      tag_172\n        /* \"#utility.yul\":3752:3756   */\n      0x00\n        /* \"#utility.yul\":3747:3750   */\n      dup7\n        /* \"#utility.yul\":3743:3757   */\n      add\n        /* \"#utility.yul\":3729:3741   */\n      dup3\n        /* \"#utility.yul\":3695:3758   */\n      tag_84\n      jump\t// in\n    tag_172:\n        /* \"#utility.yul\":3606:3768   */\n      pop\n        /* \"#utility.yul\":3853:3857   */\n      0x20\n        /* \"#utility.yul\":3846:3851   */\n      dup4\n        /* \"#utility.yul\":3842:3858   */\n      add\n        /* \"#utility.yul\":3836:3859   */\n      mload\n        /* \"#utility.yul\":3906:3909   */\n      dup5\n        /* \"#utility.yul\":3900:3904   */\n      dup3\n        /* \"#utility.yul\":3896:3910   */\n      sub\n        /* \"#utility.yul\":3889:3893   */\n      0x20\n        /* \"#utility.yul\":3884:3887   */\n      dup7\n        /* \"#utility.yul\":3880:3894   */\n      add\n        /* \"#utility.yul\":3873:3911   */\n      mstore\n        /* \"#utility.yul\":3932:4005   */\n      tag_173\n        /* \"#utility.yul\":4000:4004   */\n      dup3\n        /* \"#utility.yul\":3986:3998   */\n      dup3\n        /* \"#utility.yul\":3932:4005   */\n      tag_89\n      jump\t// in\n    tag_173:\n        /* \"#utility.yul\":3924:4005   */\n      swap2\n      pop\n        /* \"#utility.yul\":3778:4016   */\n      pop\n        /* \"#utility.yul\":4103:4107   */\n      0x40\n        /* \"#utility.yul\":4096:4101   */\n      dup4\n        /* \"#utility.yul\":4092:4108   */\n      add\n        /* \"#utility.yul\":4086:4109   */\n      mload\n        /* \"#utility.yul\":4122:4179   */\n      tag_174\n        /* \"#utility.yul\":4173:4177   */\n      0x40\n        /* \"#utility.yul\":4168:4171   */\n      dup7\n        /* \"#utility.yul\":4164:4178   */\n      add\n        /* \"#utility.yul\":4150:4162   */\n      dup3\n        /* \"#utility.yul\":4122:4179   */\n      tag_90\n      jump\t// in\n    tag_174:\n        /* \"#utility.yul\":4026:4189   */\n      pop\n        /* \"#utility.yul\":4206:4210   */\n      dup1\n        /* \"#utility.yul\":4199:4210   */\n      swap2\n      pop\n        /* \"#utility.yul\":3560:4216   */\n      pop\n        /* \"#utility.yul\":3456:4216   */\n      swap3\n      swap2\n      pop\n      pop\n      jump\t// out\n        /* \"#utility.yul\":4222:4458   */\n    tag_92:\n        /* \"#utility.yul\":4331:4341   */\n      0x00\n        /* \"#utility.yul\":4366:4452   */\n      tag_176\n        /* \"#utility.yul\":4448:4451   */\n      dup4\n        /* \"#utility.yul\":4440:4446   */\n      dup4\n        /* \"#utility.yul\":4366:4452   */\n      tag_91\n      jump\t// in\n    tag_176:\n        /* \"#utility.yul\":4352:4452   */\n      swap1\n      pop\n        /* \"#utility.yul\":4222:4458   */\n      swap3\n      swap2\n      pop\n      pop\n      jump\t// out\n        /* \"#utility.yul\":4464:4597   */\n    tag_93:\n        /* \"#utility.yul\":4554:4558   */\n      0x00\n        /* \"#utility.yul\":4586:4590   */\n      0x20\n        /* \"#utility.yul\":4581:4584   */\n      dup3\n        /* \"#utility.yul\":4577:4591   */\n      add\n        /* \"#utility.yul\":4569:4591   */\n      swap1\n      pop\n        /* \"#utility.yul\":4464:4597   */\n      swap2\n      swap1\n      pop\n      jump\t// out\n        /* \"#utility.yul\":4657:5728   */\n    tag_94:\n        /* \"#utility.yul\":4816:4819   */\n      0x00\n        /* \"#utility.yul\":4845:4919   */\n      tag_179\n        /* \"#utility.yul\":4913:4918   */\n      dup3\n        /* \"#utility.yul\":4845:4919   */\n      tag_80\n      jump\t// in\n    tag_179:\n        /* \"#utility.yul\":4935:5041   */\n      tag_180\n        /* \"#utility.yul\":5034:5040   */\n      dup2\n        /* \"#utility.yul\":5029:5032   */\n      dup6\n        /* \"#utility.yul\":4935:5041   */\n      tag_81\n      jump\t// in\n    tag_180:\n        /* \"#utility.yul\":4928:5041   */\n      swap4\n      pop\n        /* \"#utility.yul\":5067:5070   */\n      dup4\n        /* \"#utility.yul\":5112:5116   */\n      0x20\n        /* \"#utility.yul\":5104:5110   */\n      dup3\n        /* \"#utility.yul\":5100:5117   */\n      mul\n        /* \"#utility.yul\":5095:5098   */\n      dup6\n        /* \"#utility.yul\":5091:5118   */\n      add\n        /* \"#utility.yul\":5142:5218   */\n      tag_181\n        /* \"#utility.yul\":5212:5217   */\n      dup6\n        /* \"#utility.yul\":5142:5218   */\n      tag_82\n      jump\t// in\n    tag_181:\n        /* \"#utility.yul\":5241:5248   */\n      dup1\n        /* \"#utility.yul\":5272:5273   */\n      0x00\n        /* \"#utility.yul\":5257:5683   */\n    tag_182:\n        /* \"#utility.yul\":5282:5288   */\n      dup6\n        /* \"#utility.yul\":5279:5280   */\n      dup2\n        /* \"#utility.yul\":5276:5289   */\n      lt\n        /* \"#utility.yul\":5257:5683   */\n      iszero\n      tag_184\n      jumpi\n        /* \"#utility.yul\":5353:5362   */\n      dup5\n        /* \"#utility.yul\":5347:5351   */\n      dup5\n        /* \"#utility.yul\":5343:5363   */\n      sub\n        /* \"#utility.yul\":5338:5341   */\n      dup10\n        /* \"#utility.yul\":5331:5364   */\n      mstore\n        /* \"#utility.yul\":5404:5410   */\n      dup2\n        /* \"#utility.yul\":5398:5411   */\n      mload\n        /* \"#utility.yul\":5432:5536   */\n      tag_185\n        /* \"#utility.yul\":5531:5535   */\n      dup6\n        /* \"#utility.yul\":5516:5529   */\n      dup3\n        /* \"#utility.yul\":5432:5536   */\n      tag_92\n      jump\t// in\n    tag_185:\n        /* \"#utility.yul\":5424:5536   */\n      swap5\n      pop\n        /* \"#utility.yul\":5559:5639   */\n      tag_186\n        /* \"#utility.yul\":5632:5638   */\n      dup4\n        /* \"#utility.yul\":5559:5639   */\n      tag_93\n      jump\t// in\n    tag_186:\n        /* \"#utility.yul\":5549:5639   */\n      swap3\n      pop\n        /* \"#utility.yul\":5668:5672   */\n      0x20\n        /* \"#utility.yul\":5663:5666   */\n      dup11\n        /* \"#utility.yul\":5659:5673   */\n      add\n        /* \"#utility.yul\":5652:5673   */\n      swap10\n      pop\n        /* \"#utility.yul\":5317:5683   */\n      pop\n        /* \"#utility.yul\":5304:5305   */\n      0x01\n        /* \"#utility.yul\":5301:5302   */\n      dup2\n        /* \"#utility.yul\":5297:5306   */\n      add\n        /* \"#utility.yul\":5292:5306   */\n      swap1\n      pop\n        /* \"#utility.yul\":5257:5683   */\n      jump(tag_182)\n    tag_184:\n        /* \"#utility.yul\":5261:5275   */\n      pop\n        /* \"#utility.yul\":5699:5703   */\n      dup3\n        /* \"#utility.yul\":5692:5703   */\n      swap8\n      pop\n        /* \"#utility.yul\":5719:5722   */\n      dup8\n        /* \"#utility.yul\":5712:5722   */\n      swap6\n      pop\n        /* \"#utility.yul\":4821:5728   */\n      pop\n      pop\n      pop\n      pop\n      pop\n        /* \"#utility.yul\":4657:5728   */\n      swap3\n      swap2\n      pop\n      pop\n      jump\t// out\n        /* \"#utility.yul\":5734:6187   */\n    tag_19:\n        /* \"#utility.yul\":5917:5921   */\n      0x00\n        /* \"#utility.yul\":5955:5957   */\n      0x20\n        /* \"#utility.yul\":5944:5953   */\n      dup3\n        /* \"#utility.yul\":5940:5958   */\n      add\n        /* \"#utility.yul\":5932:5958   */\n      swap1\n      pop\n        /* \"#utility.yul\":6004:6013   */\n      dup2\n        /* \"#utility.yul\":5998:6002   */\n      dup2\n        /* \"#utility.yul\":5994:6014   */\n      sub\n        /* \"#utility.yul\":5990:5991   */\n      0x00\n        /* \"#utility.yul\":5979:5988   */\n      dup4\n        /* \"#utility.yul\":5975:5992   */\n      add\n        /* \"#utility.yul\":5968:6015   */\n      mstore\n        /* \"#utility.yul\":6032:6180   */\n      tag_188\n        /* \"#utility.yul\":6175:6179   */\n      dup2\n        /* \"#utility.yul\":6166:6172   */\n      dup5\n        /* \"#utility.yul\":6032:6180   */\n      tag_94\n      jump\t// in\n    tag_188:\n        /* \"#utility.yul\":6024:6180   */\n      swap1\n      pop\n        /* \"#utility.yul\":5734:6187   */\n      swap3\n      swap2\n      pop\n      pop\n      jump\t// out\n        /* \"#utility.yul\":6193:6315   */\n    tag_95:\n        /* \"#utility.yul\":6266:6290   */\n      tag_190\n        /* \"#utility.yul\":6284:6289   */\n      dup2\n        /* \"#utility.yul\":6266:6290   */\n      tag_83\n      jump\t// in\n    tag_190:\n        /* \"#utility.yul\":6259:6264   */\n      dup2\n        /* \"#utility.yul\":6256:6291   */\n      eq\n        /* \"#utility.yul\":6246:6309   */\n      tag_191\n      jumpi\n        /* \"#utility.yul\":6305:6306   */\n      0x00\n        /* \"#utility.yul\":6302:6303   */\n      dup1\n        /* \"#utility.yul\":6295:6307   */\n      revert\n        /* \"#utility.yul\":6246:6309   */\n    tag_191:\n        /* \"#utility.yul\":6193:6315   */\n      pop\n      jump\t// out\n        /* \"#utility.yul\":6321:6460   */\n    tag_96:\n        /* \"#utility.yul\":6367:6372   */\n      0x00\n        /* \"#utility.yul\":6405:6411   */\n      dup2\n        /* \"#utility.yul\":6392:6412   */\n      calldataload\n        /* \"#utility.yul\":6383:6412   */\n      swap1\n      pop\n        /* \"#utility.yul\":6421:6454   */\n      tag_193\n        /* \"#utility.yul\":6448:6453   */\n      dup2\n        /* \"#utility.yul\":6421:6454   */\n      tag_95\n      jump\t// in\n    tag_193:\n        /* \"#utility.yul\":6321:6460   */\n      swap3\n      swap2\n      pop\n      pop\n      jump\t// out\n        /* \"#utility.yul\":6466:6795   */\n    tag_22:\n        /* \"#utility.yul\":6525:6531   */\n      0x00\n        /* \"#utility.yul\":6574:6576   */\n      0x20\n        /* \"#utility.yul\":6562:6571   */\n      dup3\n        /* \"#utility.yul\":6553:6560   */\n      dup5\n        /* \"#utility.yul\":6549:6572   */\n      sub\n        /* \"#utility.yul\":6545:6577   */\n      slt\n        /* \"#utility.yul\":6542:6661   */\n      iszero\n      tag_195\n      jumpi\n        /* \"#utility.yul\":6580:6659   */\n      tag_196\n      tag_72\n      jump\t// in\n    tag_196:\n        /* \"#utility.yul\":6542:6661   */\n    tag_195:\n        /* \"#utility.yul\":6700:6701   */\n      0x00\n        /* \"#utility.yul\":6725:6778   */\n      tag_197\n        /* \"#utility.yul\":6770:6777   */\n      dup5\n        /* \"#utility.yul\":6761:6767   */\n      dup3\n        /* \"#utility.yul\":6750:6759   */\n      dup6\n        /* \"#utility.yul\":6746:6768   */\n      add\n        /* \"#utility.yul\":6725:6778   */\n      tag_96\n      jump\t// in\n    tag_197:\n        /* \"#utility.yul\":6715:6778   */\n      swap2\n      pop\n        /* \"#utility.yul\":6671:6788   */\n      pop\n        /* \"#utility.yul\":6466:6795   */\n      swap3\n      swap2\n      pop\n      pop\n      jump\t// out\n        /* \"#utility.yul\":6801:6918   */\n    tag_97:\n        /* \"#utility.yul\":6910:6911   */\n      0x00\n        /* \"#utility.yul\":6907:6908   */\n      dup1\n        /* \"#utility.yul\":6900:6912   */\n      revert\n        /* \"#utility.yul\":6924:7041   */\n    tag_98:\n        /* \"#utility.yul\":7033:7034   */\n      0x00\n        /* \"#utility.yul\":7030:7031   */\n      dup1\n        /* \"#utility.yul\":7023:7035   */\n      revert\n        /* \"#utility.yul\":7047:7227   */\n    tag_99:\n        /* \"#utility.yul\":7095:7172   */\n      0x4e487b7100000000000000000000000000000000000000000000000000000000\n        /* \"#utility.yul\":7092:7093   */\n      0x00\n        /* \"#utility.yul\":7085:7173   */\n      mstore\n        /* \"#utility.yul\":7192:7196   */\n      0x41\n        /* \"#utility.yul\":7189:7190   */\n      0x04\n        /* \"#utility.yul\":7182:7197   */\n      mstore\n        /* \"#utility.yul\":7216:7220   */\n      0x24\n        /* \"#utility.yul\":7213:7214   */\n      0x00\n        /* \"#utility.yul\":7206:7221   */\n      revert\n        /* \"#utility.yul\":7233:7514   */\n    tag_100:\n        /* \"#utility.yul\":7316:7343   */\n      tag_202\n        /* \"#utility.yul\":7338:7342   */\n      dup3\n        /* \"#utility.yul\":7316:7343   */\n      tag_88\n      jump\t// in\n    tag_202:\n        /* \"#utility.yul\":7308:7314   */\n      dup2\n        /* \"#utility.yul\":7304:7344   */\n      add\n        /* \"#utility.yul\":7446:7452   */\n      dup2\n        /* \"#utility.yul\":7434:7444   */\n      dup2\n        /* \"#utility.yul\":7431:7453   */\n      lt\n        /* \"#utility.yul\":7410:7428   */\n      0xffffffffffffffff\n        /* \"#utility.yul\":7398:7408   */\n      dup3\n        /* \"#utility.yul\":7395:7429   */\n      gt\n        /* \"#utility.yul\":7392:7454   */\n      or\n        /* \"#utility.yul\":7389:7477   */\n      iszero\n      tag_203\n      jumpi\n        /* \"#utility.yul\":7457:7475   */\n      tag_204\n      tag_99\n      jump\t// in\n    tag_204:\n        /* \"#utility.yul\":7389:7477   */\n    tag_203:\n        /* \"#utility.yul\":7497:7507   */\n      dup1\n        /* \"#utility.yul\":7493:7495   */\n      0x40\n        /* \"#utility.yul\":7486:7508   */\n      mstore\n        /* \"#utility.yul\":7276:7514   */\n      pop\n        /* \"#utility.yul\":7233:7514   */\n      pop\n      pop\n      jump\t// out\n        /* \"#utility.yul\":7520:7649   */\n    tag_101:\n        /* \"#utility.yul\":7554:7560   */\n      0x00\n        /* \"#utility.yul\":7581:7601   */\n      tag_206\n      tag_71\n      jump\t// in\n    tag_206:\n        /* \"#utility.yul\":7571:7601   */\n      swap1\n      pop\n        /* \"#utility.yul\":7610:7643   */\n      tag_207\n        /* \"#utility.yul\":7638:7642   */\n      dup3\n        /* \"#utility.yul\":7630:7636   */\n      dup3\n        /* \"#utility.yul\":7610:7643   */\n      tag_100\n      jump\t// in\n    tag_207:\n        /* \"#utility.yul\":7520:7649   */\n      swap2\n      swap1\n      pop\n      jump\t// out\n        /* \"#utility.yul\":7655:7963   */\n    tag_102:\n        /* \"#utility.yul\":7717:7721   */\n      0x00\n        /* \"#utility.yul\":7807:7825   */\n      0xffffffffffffffff\n        /* \"#utility.yul\":7799:7805   */\n      dup3\n        /* \"#utility.yul\":7796:7826   */\n      gt\n        /* \"#utility.yul\":7793:7849   */\n      iszero\n      tag_209\n      jumpi\n        /* \"#utility.yul\":7829:7847   */\n      tag_210\n      tag_99\n      jump\t// in\n    tag_210:\n        /* \"#utility.yul\":7793:7849   */\n    tag_209:\n        /* \"#utility.yul\":7867:7896   */\n      tag_211\n        /* \"#utility.yul\":7889:7895   */\n      dup3\n        /* \"#utility.yul\":7867:7896   */\n      tag_88\n      jump\t// in\n    tag_211:\n        /* \"#utility.yul\":7859:7896   */\n      swap1\n      pop\n        /* \"#utility.yul\":7951:7955   */\n      0x20\n        /* \"#utility.yul\":7945:7949   */\n      dup2\n        /* \"#utility.yul\":7941:7956   */\n      add\n        /* \"#utility.yul\":7933:7956   */\n      swap1\n      pop\n        /* \"#utility.yul\":7655:7963   */\n      swap2\n      swap1\n      pop\n      jump\t// out\n        /* \"#utility.yul\":7969:8115   */\n    tag_103:\n        /* \"#utility.yul\":8066:8072   */\n      dup3\n        /* \"#utility.yul\":8061:8064   */\n      dup2\n        /* \"#utility.yul\":8056:8059   */\n      dup4\n        /* \"#utility.yul\":8043:8073   */\n      calldatacopy\n        /* \"#utility.yul\":8107:8108   */\n      0x00\n        /* \"#utility.yul\":8098:8104   */\n      dup4\n        /* \"#utility.yul\":8093:8096   */\n      dup4\n        /* \"#utility.yul\":8089:8105   */\n      add\n        /* \"#utility.yul\":8082:8109   */\n      mstore\n        /* \"#utility.yul\":7969:8115   */\n      pop\n      pop\n      pop\n      jump\t// out\n        /* \"#utility.yul\":8121:8546   */\n    tag_104:\n        /* \"#utility.yul\":8199:8204   */\n      0x00\n        /* \"#utility.yul\":8224:8290   */\n      tag_214\n        /* \"#utility.yul\":8240:8289   */\n      tag_215\n        /* \"#utility.yul\":8282:8288   */\n      dup5\n        /* \"#utility.yul\":8240:8289   */\n      tag_102\n      jump\t// in\n    tag_215:\n        /* \"#utility.yul\":8224:8290   */\n      tag_101\n      jump\t// in\n    tag_214:\n        /* \"#utility.yul\":8215:8290   */\n      swap1\n      pop\n        /* \"#utility.yul\":8313:8319   */\n      dup3\n        /* \"#utility.yul\":8306:8311   */\n      dup2\n        /* \"#utility.yul\":8299:8320   */\n      mstore\n        /* \"#utility.yul\":8351:8355   */\n      0x20\n        /* \"#utility.yul\":8344:8349   */\n      dup2\n        /* \"#utility.yul\":8340:8356   */\n      add\n        /* \"#utility.yul\":8389:8392   */\n      dup5\n        /* \"#utility.yul\":8380:8386   */\n      dup5\n        /* \"#utility.yul\":8375:8378   */\n      dup5\n        /* \"#utility.yul\":8371:8387   */\n      add\n        /* \"#utility.yul\":8368:8393   */\n      gt\n        /* \"#utility.yul\":8365:8477   */\n      iszero\n      tag_216\n      jumpi\n        /* \"#utility.yul\":8396:8475   */\n      tag_217\n      tag_98\n      jump\t// in\n    tag_217:\n        /* \"#utility.yul\":8365:8477   */\n    tag_216:\n        /* \"#utility.yul\":8486:8540   */\n      tag_218\n        /* \"#utility.yul\":8533:8539   */\n      dup5\n        /* \"#utility.yul\":8528:8531   */\n      dup3\n        /* \"#utility.yul\":8523:8526   */\n      dup6\n        /* \"#utility.yul\":8486:8540   */\n      tag_103\n      jump\t// in\n    tag_218:\n        /* \"#utility.yul\":8205:8546   */\n      pop\n        /* \"#utility.yul\":8121:8546   */\n      swap4\n      swap3\n      pop\n      pop\n      pop\n      jump\t// out\n        /* \"#utility.yul\":8566:8906   */\n    tag_105:\n        /* \"#utility.yul\":8622:8627   */\n      0x00\n        /* \"#utility.yul\":8671:8674   */\n      dup3\n        /* \"#utility.yul\":8664:8668   */\n      0x1f\n        /* \"#utility.yul\":8656:8662   */\n      dup4\n        /* \"#utility.yul\":8652:8669   */\n      add\n        /* \"#utility.yul\":8648:8675   */\n      slt\n        /* \"#utility.yul\":8638:8760   */\n      tag_220\n      jumpi\n        /* \"#utility.yul\":8679:8758   */\n      tag_221\n      tag_97\n      jump\t// in\n    tag_221:\n        /* \"#utility.yul\":8638:8760   */\n    tag_220:\n        /* \"#utility.yul\":8796:8802   */\n      dup2\n        /* \"#utility.yul\":8783:8803   */\n      calldataload\n        /* \"#utility.yul\":8821:8900   */\n      tag_222\n        /* \"#utility.yul\":8896:8899   */\n      dup5\n        /* \"#utility.yul\":8888:8894   */\n      dup3\n        /* \"#utility.yul\":8881:8885   */\n      0x20\n        /* \"#utility.yul\":8873:8879   */\n      dup7\n        /* \"#utility.yul\":8869:8886   */\n      add\n        /* \"#utility.yul\":8821:8900   */\n      tag_104\n      jump\t// in\n    tag_222:\n        /* \"#utility.yul\":8812:8900   */\n      swap2\n      pop\n        /* \"#utility.yul\":8628:8906   */\n      pop\n        /* \"#utility.yul\":8566:8906   */\n      swap3\n      swap2\n      pop\n      pop\n      jump\t// out\n        /* \"#utility.yul\":8912:9421   */\n    tag_26:\n        /* \"#utility.yul\":8981:8987   */\n      0x00\n        /* \"#utility.yul\":9030:9032   */\n      0x20\n        /* \"#utility.yul\":9018:9027   */\n      dup3\n        /* \"#utility.yul\":9009:9016   */\n      dup5\n        /* \"#utility.yul\":9005:9028   */\n      sub\n        /* \"#utility.yul\":9001:9033   */\n      slt\n        /* \"#utility.yul\":8998:9117   */\n      iszero\n      tag_224\n      jumpi\n        /* \"#utility.yul\":9036:9115   */\n      tag_225\n      tag_72\n      jump\t// in\n    tag_225:\n        /* \"#utility.yul\":8998:9117   */\n    tag_224:\n        /* \"#utility.yul\":9184:9185   */\n      0x00\n        /* \"#utility.yul\":9173:9182   */\n      dup3\n        /* \"#utility.yul\":9169:9186   */\n      add\n        /* \"#utility.yul\":9156:9187   */\n      calldataload\n        /* \"#utility.yul\":9214:9232   */\n      0xffffffffffffffff\n        /* \"#utility.yul\":9206:9212   */\n      dup2\n        /* \"#utility.yul\":9203:9233   */\n      gt\n        /* \"#utility.yul\":9200:9317   */\n      iszero\n      tag_226\n      jumpi\n        /* \"#utility.yul\":9236:9315   */\n      tag_227\n      tag_73\n      jump\t// in\n    tag_227:\n        /* \"#utility.yul\":9200:9317   */\n    tag_226:\n        /* \"#utility.yul\":9341:9404   */\n      tag_228\n        /* \"#utility.yul\":9396:9403   */\n      dup5\n        /* \"#utility.yul\":9387:9393   */\n      dup3\n        /* \"#utility.yul\":9376:9385   */\n      dup6\n        /* \"#utility.yul\":9372:9394   */\n      add\n        /* \"#utility.yul\":9341:9404   */\n      tag_105\n      jump\t// in\n    tag_228:\n        /* \"#utility.yul\":9331:9404   */\n      swap2\n      pop\n        /* \"#utility.yul\":9127:9414   */\n      pop\n        /* \"#utility.yul\":8912:9421   */\n      swap3\n      swap2\n      pop\n      pop\n      jump\t// out\n        /* \"#utility.yul\":9427:9596   */\n    tag_106:\n        /* \"#utility.yul\":9511:9522   */\n      0x00\n        /* \"#utility.yul\":9545:9551   */\n      dup3\n        /* \"#utility.yul\":9540:9543   */\n      dup3\n        /* \"#utility.yul\":9533:9552   */\n      mstore\n        /* \"#utility.yul\":9585:9589   */\n      0x20\n        /* \"#utility.yul\":9580:9583   */\n      dup3\n        /* \"#utility.yul\":9576:9590   */\n      add\n        /* \"#utility.yul\":9561:9590   */\n      swap1\n      pop\n        /* \"#utility.yul\":9427:9596   */\n      swap3\n      swap2\n      pop\n      pop\n      jump\t// out\n        /* \"#utility.yul\":9602:9775   */\n    tag_107:\n        /* \"#utility.yul\":9742:9767   */\n      0x5573657220616c72656164792072656769737465726564000000000000000000\n        /* \"#utility.yul\":9738:9739   */\n      0x00\n        /* \"#utility.yul\":9730:9736   */\n      dup3\n        /* \"#utility.yul\":9726:9740   */\n      add\n        /* \"#utility.yul\":9719:9768   */\n      mstore\n        /* \"#utility.yul\":9602:9775   */\n      pop\n      jump\t// out\n        /* \"#utility.yul\":9781:10147   */\n    tag_108:\n        /* \"#utility.yul\":9923:9926   */\n      0x00\n        /* \"#utility.yul\":9944:10011   */\n      tag_232\n        /* \"#utility.yul\":10008:10010   */\n      0x17\n        /* \"#utility.yul\":10003:10006   */\n      dup4\n        /* \"#utility.yul\":9944:10011   */\n      tag_106\n      jump\t// in\n    tag_232:\n        /* \"#utility.yul\":9937:10011   */\n      swap2\n      pop\n        /* \"#utility.yul\":10020:10113   */\n      tag_233\n        /* \"#utility.yul\":10109:10112   */\n      dup3\n        /* \"#utility.yul\":10020:10113   */\n      tag_107\n      jump\t// in\n    tag_233:\n        /* \"#utility.yul\":10138:10140   */\n      0x20\n        /* \"#utility.yul\":10133:10136   */\n      dup3\n        /* \"#utility.yul\":10129:10141   */\n      add\n        /* \"#utility.yul\":10122:10141   */\n      swap1\n      pop\n        /* \"#utility.yul\":9781:10147   */\n      swap2\n      swap1\n      pop\n      jump\t// out\n        /* \"#utility.yul\":10153:10572   */\n    tag_32:\n        /* \"#utility.yul\":10319:10323   */\n      0x00\n        /* \"#utility.yul\":10357:10359   */\n      0x20\n        /* \"#utility.yul\":10346:10355   */\n      dup3\n        /* \"#utility.yul\":10342:10360   */\n      add\n        /* \"#utility.yul\":10334:10360   */\n      swap1\n      pop\n        /* \"#utility.yul\":10406:10415   */\n      dup2\n        /* \"#utility.yul\":10400:10404   */\n      dup2\n        /* \"#utility.yul\":10396:10416   */\n      sub\n        /* \"#utility.yul\":10392:10393   */\n      0x00\n        /* \"#utility.yul\":10381:10390   */\n      dup4\n        /* \"#utility.yul\":10377:10394   */\n      add\n        /* \"#utility.yul\":10370:10417   */\n      mstore\n        /* \"#utility.yul\":10434:10565   */\n      tag_235\n        /* \"#utility.yul\":10560:10564   */\n      dup2\n        /* \"#utility.yul\":10434:10565   */\n      tag_108\n      jump\t// in\n    tag_235:\n        /* \"#utility.yul\":10426:10565   */\n      swap1\n      pop\n        /* \"#utility.yul\":10153:10572   */\n      swap2\n      swap1\n      pop\n      jump\t// out\n        /* \"#utility.yul\":10578:10747   */\n    tag_109:\n        /* \"#utility.yul\":10718:10739   */\n      0x55736572206e6f74207265676973746572656400000000000000000000000000\n        /* \"#utility.yul\":10714:10715   */\n      0x00\n        /* \"#utility.yul\":10706:10712   */\n      dup3\n        /* \"#utility.yul\":10702:10716   */\n      add\n        /* \"#utility.yul\":10695:10740   */\n      mstore\n        /* \"#utility.yul\":10578:10747   */\n      pop\n      jump\t// out\n        /* \"#utility.yul\":10753:11119   */\n    tag_110:\n        /* \"#utility.yul\":10895:10898   */\n      0x00\n        /* \"#utility.yul\":10916:10983   */\n      tag_238\n        /* \"#utility.yul\":10980:10982   */\n      0x13\n        /* \"#utility.yul\":10975:10978   */\n      dup4\n        /* \"#utility.yul\":10916:10983   */\n      tag_106\n      jump\t// in\n    tag_238:\n        /* \"#utility.yul\":10909:10983   */\n      swap2\n      pop\n        /* \"#utility.yul\":10992:11085   */\n      tag_239\n        /* \"#utility.yul\":11081:11084   */\n      dup3\n        /* \"#utility.yul\":10992:11085   */\n      tag_109\n      jump\t// in\n    tag_239:\n        /* \"#utility.yul\":11110:11112   */\n      0x20\n        /* \"#utility.yul\":11105:11108   */\n      dup3\n        /* \"#utility.yul\":11101:11113   */\n      add\n        /* \"#utility.yul\":11094:11113   */\n      swap1\n      pop\n        /* \"#utility.yul\":10753:11119   */\n      swap2\n      swap1\n      pop\n      jump\t// out\n        /* \"#utility.yul\":11125:11544   */\n    tag_36:\n        /* \"#utility.yul\":11291:11295   */\n      0x00\n        /* \"#utility.yul\":11329:11331   */\n      0x20\n        /* \"#utility.yul\":11318:11327   */\n      dup3\n        /* \"#utility.yul\":11314:11332   */\n      add\n        /* \"#utility.yul\":11306:11332   */\n      swap1\n      pop\n        /* \"#utility.yul\":11378:11387   */\n      dup2\n        /* \"#utility.yul\":11372:11376   */\n      dup2\n        /* \"#utility.yul\":11368:11388   */\n      sub\n        /* \"#utility.yul\":11364:11365   */\n      0x00\n        /* \"#utility.yul\":11353:11362   */\n      dup4\n        /* \"#utility.yul\":11349:11366   */\n      add\n        /* \"#utility.yul\":11342:11389   */\n      mstore\n        /* \"#utility.yul\":11406:11537   */\n      tag_241\n        /* \"#utility.yul\":11532:11536   */\n      dup2\n        /* \"#utility.yul\":11406:11537   */\n      tag_110\n      jump\t// in\n    tag_241:\n        /* \"#utility.yul\":11398:11537   */\n      swap1\n      pop\n        /* \"#utility.yul\":11125:11544   */\n      swap2\n      swap1\n      pop\n      jump\t// out\n        /* \"#utility.yul\":11550:11730   */\n    tag_111:\n        /* \"#utility.yul\":11598:11675   */\n      0x4e487b7100000000000000000000000000000000000000000000000000000000\n        /* \"#utility.yul\":11595:11596   */\n      0x00\n        /* \"#utility.yul\":11588:11676   */\n      mstore\n        /* \"#utility.yul\":11695:11699   */\n      0x22\n        /* \"#utility.yul\":11692:11693   */\n      0x04\n        /* \"#utility.yul\":11685:11700   */\n      mstore\n        /* \"#utility.yul\":11719:11723   */\n      0x24\n        /* \"#utility.yul\":11716:11717   */\n      0x00\n        /* \"#utility.yul\":11709:11724   */\n      revert\n        /* \"#utility.yul\":11736:12056   */\n    tag_42:\n        /* \"#utility.yul\":11780:11786   */\n      0x00\n        /* \"#utility.yul\":11817:11818   */\n      0x02\n        /* \"#utility.yul\":11811:11815   */\n      dup3\n        /* \"#utility.yul\":11807:11819   */\n      div\n        /* \"#utility.yul\":11797:11819   */\n      swap1\n      pop\n        /* \"#utility.yul\":11864:11865   */\n      0x01\n        /* \"#utility.yul\":11858:11862   */\n      dup3\n        /* \"#utility.yul\":11854:11866   */\n      and\n        /* \"#utility.yul\":11885:11903   */\n      dup1\n        /* \"#utility.yul\":11875:11956   */\n      tag_244\n      jumpi\n        /* \"#utility.yul\":11941:11945   */\n      0x7f\n        /* \"#utility.yul\":11933:11939   */\n      dup3\n        /* \"#utility.yul\":11929:11946   */\n      and\n        /* \"#utility.yul\":11919:11946   */\n      swap2\n      pop\n        /* \"#utility.yul\":11875:11956   */\n    tag_244:\n        /* \"#utility.yul\":12003:12005   */\n      0x20\n        /* \"#utility.yul\":11995:12001   */\n      dup3\n        /* \"#utility.yul\":11992:12006   */\n      lt\n        /* \"#utility.yul\":11972:11990   */\n      dup2\n        /* \"#utility.yul\":11969:12007   */\n      sub\n        /* \"#utility.yul\":11966:12050   */\n      tag_245\n      jumpi\n        /* \"#utility.yul\":12022:12040   */\n      tag_246\n      tag_111\n      jump\t// in\n    tag_246:\n        /* \"#utility.yul\":11966:12050   */\n    tag_245:\n        /* \"#utility.yul\":11787:12056   */\n      pop\n        /* \"#utility.yul\":11736:12056   */\n      swap2\n      swap1\n      pop\n      jump\t// out\n        /* \"#utility.yul\":12062:12227   */\n    tag_112:\n        /* \"#utility.yul\":12202:12219   */\n      0x496e76616c696420746f646f2049440000000000000000000000000000000000\n        /* \"#utility.yul\":12198:12199   */\n      0x00\n        /* \"#utility.yul\":12190:12196   */\n      dup3\n        /* \"#utility.yul\":12186:12200   */\n      add\n        /* \"#utility.yul\":12179:12220   */\n      mstore\n        /* \"#utility.yul\":12062:12227   */\n      pop\n      jump\t// out\n        /* \"#utility.yul\":12233:12599   */\n    tag_113:\n        /* \"#utility.yul\":12375:12378   */\n      0x00\n        /* \"#utility.yul\":12396:12463   */\n      tag_249\n        /* \"#utility.yul\":12460:12462   */\n      0x0f\n        /* \"#utility.yul\":12455:12458   */\n      dup4\n        /* \"#utility.yul\":12396:12463   */\n      tag_106\n      jump\t// in\n    tag_249:\n        /* \"#utility.yul\":12389:12463   */\n      swap2\n      pop\n        /* \"#utility.yul\":12472:12565   */\n      tag_250\n        /* \"#utility.yul\":12561:12564   */\n      dup3\n        /* \"#utility.yul\":12472:12565   */\n      tag_112\n      jump\t// in\n    tag_250:\n        /* \"#utility.yul\":12590:12592   */\n      0x20\n        /* \"#utility.yul\":12585:12588   */\n      dup3\n        /* \"#utility.yul\":12581:12593   */\n      add\n        /* \"#utility.yul\":12574:12593   */\n      swap1\n      pop\n        /* \"#utility.yul\":12233:12599   */\n      swap2\n      swap1\n      pop\n      jump\t// out\n        /* \"#utility.yul\":12605:13024   */\n    tag_53:\n        /* \"#utility.yul\":12771:12775   */\n      0x00\n        /* \"#utility.yul\":12809:12811   */\n      0x20\n        /* \"#utility.yul\":12798:12807   */\n      dup3\n        /* \"#utility.yul\":12794:12812   */\n      add\n        /* \"#utility.yul\":12786:12812   */\n      swap1\n      pop\n        /* \"#utility.yul\":12858:12867   */\n      dup2\n        /* \"#utility.yul\":12852:12856   */\n      dup2\n        /* \"#utility.yul\":12848:12868   */\n      sub\n        /* \"#utility.yul\":12844:12845   */\n      0x00\n        /* \"#utility.yul\":12833:12842   */\n      dup4\n        /* \"#utility.yul\":12829:12846   */\n      add\n        /* \"#utility.yul\":12822:12869   */\n      mstore\n        /* \"#utility.yul\":12886:13017   */\n      tag_252\n        /* \"#utility.yul\":13012:13016   */\n      dup2\n        /* \"#utility.yul\":12886:13017   */\n      tag_113\n      jump\t// in\n    tag_252:\n        /* \"#utility.yul\":12878:13017   */\n      swap1\n      pop\n        /* \"#utility.yul\":12605:13024   */\n      swap2\n      swap1\n      pop\n      jump\t// out\n        /* \"#utility.yul\":13030:13210   */\n    tag_56:\n        /* \"#utility.yul\":13078:13155   */\n      0x4e487b7100000000000000000000000000000000000000000000000000000000\n        /* \"#utility.yul\":13075:13076   */\n      0x00\n        /* \"#utility.yul\":13068:13156   */\n      mstore\n        /* \"#utility.yul\":13175:13179   */\n      0x32\n        /* \"#utility.yul\":13172:13173   */\n      0x04\n        /* \"#utility.yul\":13165:13180   */\n      mstore\n        /* \"#utility.yul\":13199:13203   */\n      0x24\n        /* \"#utility.yul\":13196:13197   */\n      0x00\n        /* \"#utility.yul\":13189:13204   */\n      revert\n        /* \"#utility.yul\":13216:13334   */\n    tag_114:\n        /* \"#utility.yul\":13303:13327   */\n      tag_255\n        /* \"#utility.yul\":13321:13326   */\n      dup2\n        /* \"#utility.yul\":13303:13327   */\n      tag_83\n      jump\t// in\n    tag_255:\n        /* \"#utility.yul\":13298:13301   */\n      dup3\n        /* \"#utility.yul\":13291:13328   */\n      mstore\n        /* \"#utility.yul\":13216:13334   */\n      pop\n      pop\n      jump\t// out\n        /* \"#utility.yul\":13340:13562   */\n    tag_62:\n        /* \"#utility.yul\":13433:13437   */\n      0x00\n        /* \"#utility.yul\":13471:13473   */\n      0x20\n        /* \"#utility.yul\":13460:13469   */\n      dup3\n        /* \"#utility.yul\":13456:13474   */\n      add\n        /* \"#utility.yul\":13448:13474   */\n      swap1\n      pop\n        /* \"#utility.yul\":13484:13555   */\n      tag_257\n        /* \"#utility.yul\":13552:13553   */\n      0x00\n        /* \"#utility.yul\":13541:13550   */\n      dup4\n        /* \"#utility.yul\":13537:13554   */\n      add\n        /* \"#utility.yul\":13528:13534   */\n      dup5\n        /* \"#utility.yul\":13484:13555   */\n      tag_114\n      jump\t// in\n    tag_257:\n        /* \"#utility.yul\":13340:13562   */\n      swap3\n      swap2\n      pop\n      pop\n      jump\t// out\n        /* \"#utility.yul\":13568:13709   */\n    tag_115:\n        /* \"#utility.yul\":13617:13621   */\n      0x00\n        /* \"#utility.yul\":13640:13643   */\n      dup2\n        /* \"#utility.yul\":13632:13643   */\n      swap1\n      pop\n        /* \"#utility.yul\":13663:13666   */\n      dup2\n        /* \"#utility.yul\":13660:13661   */\n      0x00\n        /* \"#utility.yul\":13653:13667   */\n      mstore\n        /* \"#utility.yul\":13697:13701   */\n      0x20\n        /* \"#utility.yul\":13694:13695   */\n      0x00\n        /* \"#utility.yul\":13684:13702   */\n      keccak256\n        /* \"#utility.yul\":13676:13702   */\n      swap1\n      pop\n        /* \"#utility.yul\":13568:13709   */\n      swap2\n      swap1\n      pop\n      jump\t// out\n        /* \"#utility.yul\":13715:13808   */\n    tag_116:\n        /* \"#utility.yul\":13752:13758   */\n      0x00\n        /* \"#utility.yul\":13799:13801   */\n      0x20\n        /* \"#utility.yul\":13794:13796   */\n      0x1f\n        /* \"#utility.yul\":13787:13792   */\n      dup4\n        /* \"#utility.yul\":13783:13797   */\n      add\n        /* \"#utility.yul\":13779:13802   */\n      div\n        /* \"#utility.yul\":13769:13802   */\n      swap1\n      pop\n        /* \"#utility.yul\":13715:13808   */\n      swap2\n      swap1\n      pop\n      jump\t// out\n        /* \"#utility.yul\":13814:13921   */\n    tag_117:\n        /* \"#utility.yul\":13858:13866   */\n      0x00\n        /* \"#utility.yul\":13908:13913   */\n      dup3\n        /* \"#utility.yul\":13902:13906   */\n      dup3\n        /* \"#utility.yul\":13898:13914   */\n      shl\n        /* \"#utility.yul\":13877:13914   */\n      swap1\n      pop\n        /* \"#utility.yul\":13814:13921   */\n      swap3\n      swap2\n      pop\n      pop\n      jump\t// out\n        /* \"#utility.yul\":13927:14320   */\n    tag_118:\n        /* \"#utility.yul\":13996:14002   */\n      0x00\n        /* \"#utility.yul\":14046:14047   */\n      0x08\n        /* \"#utility.yul\":14034:14044   */\n      dup4\n        /* \"#utility.yul\":14030:14048   */\n      mul\n        /* \"#utility.yul\":14069:14166   */\n      tag_262\n        /* \"#utility.yul\":14099:14165   */\n      0xffffffffffffffffffffffffffffffffffffffffffffffffffffffffffffffff\n        /* \"#utility.yul\":14088:14097   */\n      dup3\n        /* \"#utility.yul\":14069:14166   */\n      tag_117\n      jump\t// in\n    tag_262:\n        /* \"#utility.yul\":14187:14226   */\n      tag_263\n        /* \"#utility.yul\":14217:14225   */\n      dup7\n        /* \"#utility.yul\":14206:14215   */\n      dup4\n        /* \"#utility.yul\":14187:14226   */\n      tag_117\n      jump\t// in\n    tag_263:\n        /* \"#utility.yul\":14175:14226   */\n      swap6\n      pop\n        /* \"#utility.yul\":14259:14263   */\n      dup1\n        /* \"#utility.yul\":14255:14264   */\n      not\n        /* \"#utility.yul\":14248:14253   */\n      dup5\n        /* \"#utility.yul\":14244:14265   */\n      and\n        /* \"#utility.yul\":14235:14265   */\n      swap4\n      pop\n        /* \"#utility.yul\":14308:14312   */\n      dup1\n        /* \"#utility.yul\":14298:14306   */\n      dup7\n        /* \"#utility.yul\":14294:14313   */\n      and\n        /* \"#utility.yul\":14287:14292   */\n      dup5\n        /* \"#utility.yul\":14284:14314   */\n      or\n        /* \"#utility.yul\":14274:14314   */\n      swap3\n      pop\n        /* \"#utility.yul\":14003:14320   */\n      pop\n      pop\n        /* \"#utility.yul\":13927:14320   */\n      swap4\n      swap3\n      pop\n      pop\n      pop\n      jump\t// out\n        /* \"#utility.yul\":14326:14386   */\n    tag_119:\n        /* \"#utility.yul\":14354:14357   */\n      0x00\n        /* \"#utility.yul\":14375:14380   */\n      dup2\n        /* \"#utility.yul\":14368:14380   */\n      swap1\n      pop\n        /* \"#utility.yul\":14326:14386   */\n      swap2\n      swap1\n      pop\n      jump\t// out\n        /* \"#utility.yul\":14392:14534   */\n    tag_120:\n        /* \"#utility.yul\":14442:14451   */\n      0x00\n        /* \"#utility.yul\":14475:14528   */\n      tag_266\n        /* \"#utility.yul\":14493:14527   */\n      tag_267\n        /* \"#utility.yul\":14502:14526   */\n      tag_268\n        /* \"#utility.yul\":14520:14525   */\n      dup5\n        /* \"#utility.yul\":14502:14526   */\n      tag_83\n      jump\t// in\n    tag_268:\n        /* \"#utility.yul\":14493:14527   */\n      tag_119\n      jump\t// in\n    tag_267:\n        /* \"#utility.yul\":14475:14528   */\n      tag_83\n      jump\t// in\n    tag_266:\n        /* \"#utility.yul\":14462:14528   */\n      swap1\n      pop\n        /* \"#utility.yul\":14392:14534   */\n      swap2\n      swap1\n      pop\n      jump\t// out\n        /* \"#utility.yul\":14540:14615   */\n    tag_121:\n        /* \"#utility.yul\":14583:14586   */\n      0x00\n        /* \"#utility.yul\":14604:14609   */\n      dup2\n        /* \"#utility.yul\":14597:14609   */\n      swap1\n      pop\n        /* \"#utility.yul\":14540:14615   */\n      swap2\n      swap1\n      pop\n      jump\t// out\n        /* \"#utility.yul\":14621:14890   */\n    tag_122:\n        /* \"#utility.yul\":14731:14770   */\n      tag_271\n        /* \"#utility.yul\":14762:14769   */\n      dup4\n        /* \"#utility.yul\":14731:14770   */\n      tag_120\n      jump\t// in\n    tag_271:\n        /* \"#utility.yul\":14792:14883   */\n      tag_272\n        /* \"#utility.yul\":14841:14882   */\n      tag_273\n        /* \"#utility.yul\":14865:14881   */\n      dup3\n        /* \"#utility.yul\":14841:14882   */\n      tag_121\n      jump\t// in\n    tag_273:\n        /* \"#utility.yul\":14833:14839   */\n      dup5\n        /* \"#utility.yul\":14826:14830   */\n      dup5\n        /* \"#utility.yul\":14820:14831   */\n      sload\n        /* \"#utility.yul\":14792:14883   */\n      tag_118\n      jump\t// in\n    tag_272:\n        /* \"#utility.yul\":14786:14790   */\n      dup3\n        /* \"#utility.yul\":14779:14884   */\n      sstore\n        /* \"#utility.yul\":14697:14890   */\n      pop\n        /* \"#utility.yul\":14621:14890   */\n      pop\n      pop\n      pop\n      jump\t// out\n        /* \"#utility.yul\":14896:14969   */\n    tag_123:\n        /* \"#utility.yul\":14941:14944   */\n      0x00\n        /* \"#utility.yul\":14896:14969   */\n      swap1\n      jump\t// out\n        /* \"#utility.yul\":14975:15164   */\n    tag_124:\n        /* \"#utility.yul\":15052:15084   */\n      tag_276\n      tag_123\n      jump\t// in\n    tag_276:\n        /* \"#utility.yul\":15093:15158   */\n      tag_277\n        /* \"#utility.yul\":15151:15157   */\n      dup2\n        /* \"#utility.yul\":15143:15149   */\n      dup5\n        /* \"#utility.yul\":15137:15141   */\n      dup5\n        /* \"#utility.yul\":15093:15158   */\n      tag_122\n      jump\t// in\n    tag_277:\n        /* \"#utility.yul\":15028:15164   */\n      pop\n        /* \"#utility.yul\":14975:15164   */\n      pop\n      pop\n      jump\t// out\n        /* \"#utility.yul\":15170:15356   */\n    tag_125:\n        /* \"#utility.yul\":15230:15350   */\n    tag_279:\n        /* \"#utility.yul\":15247:15250   */\n      dup2\n        /* \"#utility.yul\":15240:15245   */\n      dup2\n        /* \"#utility.yul\":15237:15251   */\n      lt\n        /* \"#utility.yul\":15230:15350   */\n      iszero\n      tag_281\n      jumpi\n        /* \"#utility.yul\":15301:15340   */\n      tag_282\n        /* \"#utility.yul\":15338:15339   */\n      0x00\n        /* \"#utility.yul\":15331:15336   */\n      dup3\n        /* \"#utility.yul\":15301:15340   */\n      tag_124\n      jump\t// in\n    tag_282:\n        /* \"#utility.yul\":15274:15275   */\n      0x01\n        /* \"#utility.yul\":15267:15272   */\n      dup2\n        /* \"#utility.yul\":15263:15276   */\n      add\n        /* \"#utility.yul\":15254:15276   */\n      swap1\n      pop\n        /* \"#utility.yul\":15230:15350   */\n      jump(tag_279)\n    tag_281:\n        /* \"#utility.yul\":15170:15356   */\n      pop\n      pop\n      jump\t// out\n        /* \"#utility.yul\":15362:15905   */\n    tag_126:\n        /* \"#utility.yul\":15463:15465   */\n      0x1f\n        /* \"#utility.yul\":15458:15461   */\n      dup3\n        /* \"#utility.yul\":15455:15466   */\n      gt\n        /* \"#utility.yul\":15452:15898   */\n      iszero\n      tag_284\n      jumpi\n        /* \"#utility.yul\":15497:15535   */\n      tag_285\n        /* \"#utility.yul\":15529:15534   */\n      dup2\n        /* \"#utility.yul\":15497:15535   */\n      tag_115\n      jump\t// in\n    tag_285:\n        /* \"#utility.yul\":15581:15610   */\n      tag_286\n        /* \"#utility.yul\":15599:15609   */\n      dup5\n        /* \"#utility.yul\":15581:15610   */\n      tag_116\n      jump\t// in\n    tag_286:\n        /* \"#utility.yul\":15571:15579   */\n      dup2\n        /* \"#utility.yul\":15567:15611   */\n      add\n        /* \"#utility.yul\":15764:15766   */\n      0x20\n        /* \"#utility.yul\":15752:15762   */\n      dup6\n        /* \"#utility.yul\":15749:15767   */\n      lt\n        /* \"#utility.yul\":15746:15795   */\n      iszero\n      tag_287\n      jumpi\n        /* \"#utility.yul\":15785:15793   */\n      dup2\n        /* \"#utility.yul\":15770:15793   */\n      swap1\n      pop\n        /* \"#utility.yul\":15746:15795   */\n    tag_287:\n        /* \"#utility.yul\":15808:15888   */\n      tag_288\n        /* \"#utility.yul\":15864:15886   */\n      tag_289\n        /* \"#utility.yul\":15882:15885   */\n      dup6\n        /* \"#utility.yul\":15864:15886   */\n      tag_116\n      jump\t// in\n    tag_289:\n        /* \"#utility.yul\":15854:15862   */\n      dup4\n        /* \"#utility.yul\":15850:15887   */\n      add\n        /* \"#utility.yul\":15837:15848   */\n      dup3\n        /* \"#utility.yul\":15808:15888   */\n      tag_125\n      jump\t// in\n    tag_288:\n        /* \"#utility.yul\":15467:15898   */\n      pop\n      pop\n        /* \"#utility.yul\":15452:15898   */\n    tag_284:\n        /* \"#utility.yul\":15362:15905   */\n      pop\n      pop\n      pop\n      jump\t// out\n        /* \"#utility.yul\":15911:16028   */\n    tag_127:\n        /* \"#utility.yul\":15965:15973   */\n      0x00\n        /* \"#utility.yul\":16015:16020   */\n      dup3\n        /* \"#utility.yul\":16009:16013   */\n      dup3\n        /* \"#utility.yul\":16005:16021   */\n      shr\n        /* \"#utility.yul\":15984:16021   */\n      swap1\n      pop\n        /* \"#utility.yul\":15911:16028   */\n      swap3\n      swap2\n      pop\n      pop\n      jump\t// out\n        /* \"#utility.yul\":16034:16203   */\n    tag_128:\n        /* \"#utility.yul\":16078:16084   */\n      0x00\n        /* \"#utility.yul\":16111:16162   */\n      tag_292\n        /* \"#utility.yul\":16159:16160   */\n      0x00\n        /* \"#utility.yul\":16155:16161   */\n      not\n        /* \"#utility.yul\":16147:16152   */\n      dup5\n        /* \"#utility.yul\":16144:16145   */\n      0x08\n        /* \"#utility.yul\":16140:16153   */\n      mul\n        /* \"#utility.yul\":16111:16162   */\n      tag_127\n      jump\t// in\n    tag_292:\n        /* \"#utility.yul\":16107:16163   */\n      not\n        /* \"#utility.yul\":16192:16196   */\n      dup1\n        /* \"#utility.yul\":16186:16190   */\n      dup4\n        /* \"#utility.yul\":16182:16197   */\n      and\n        /* \"#utility.yul\":16172:16197   */\n      swap2\n      pop\n        /* \"#utility.yul\":16085:16203   */\n      pop\n        /* \"#utility.yul\":16034:16203   */\n      swap3\n      swap2\n      pop\n      pop\n      jump\t// out\n        /* \"#utility.yul\":16208:16503   */\n    tag_129:\n        /* \"#utility.yul\":16284:16288   */\n      0x00\n        /* \"#utility.yul\":16430:16459   */\n      tag_294\n        /* \"#utility.yul\":16455:16458   */\n      dup4\n        /* \"#utility.yul\":16449:16453   */\n      dup4\n        /* \"#utility.yul\":16430:16459   */\n      tag_128\n      jump\t// in\n    tag_294:\n        /* \"#utility.yul\":16422:16459   */\n      swap2\n      pop\n        /* \"#utility.yul\":16492:16495   */\n      dup3\n        /* \"#utility.yul\":16489:16490   */\n      0x02\n        /* \"#utility.yul\":16485:16496   */\n      mul\n        /* \"#utility.yul\":16479:16483   */\n      dup3\n        /* \"#utility.yul\":16476:16497   */\n      or\n        /* \"#utility.yul\":16468:16497   */\n      swap1\n      pop\n        /* \"#utility.yul\":16208:16503   */\n      swap3\n      swap2\n      pop\n      pop\n      jump\t// out\n        /* \"#utility.yul\":16508:17903   */\n    tag_69:\n        /* \"#utility.yul\":16625:16662   */\n      tag_296\n        /* \"#utility.yul\":16658:16661   */\n      dup3\n        /* \"#utility.yul\":16625:16662   */\n      tag_85\n      jump\t// in\n    tag_296:\n        /* \"#utility.yul\":16727:16745   */\n      0xffffffffffffffff\n        /* \"#utility.yul\":16719:16725   */\n      dup2\n        /* \"#utility.yul\":16716:16746   */\n      gt\n        /* \"#utility.yul\":16713:16769   */\n      iszero\n      tag_297\n      jumpi\n        /* \"#utility.yul\":16749:16767   */\n      tag_298\n      tag_99\n      jump\t// in\n    tag_298:\n        /* \"#utility.yul\":16713:16769   */\n    tag_297:\n        /* \"#utility.yul\":16793:16831   */\n      tag_299\n        /* \"#utility.yul\":16825:16829   */\n      dup3\n        /* \"#utility.yul\":16819:16830   */\n      sload\n        /* \"#utility.yul\":16793:16831   */\n      tag_42\n      jump\t// in\n    tag_299:\n        /* \"#utility.yul\":16878:16945   */\n      tag_300\n        /* \"#utility.yul\":16938:16944   */\n      dup3\n        /* \"#utility.yul\":16930:16936   */\n      dup3\n        /* \"#utility.yul\":16924:16928   */\n      dup6\n        /* \"#utility.yul\":16878:16945   */\n      tag_126\n      jump\t// in\n    tag_300:\n        /* \"#utility.yul\":16972:16973   */\n      0x00\n        /* \"#utility.yul\":16996:17000   */\n      0x20\n        /* \"#utility.yul\":16983:17000   */\n      swap1\n      pop\n        /* \"#utility.yul\":17028:17030   */\n      0x1f\n        /* \"#utility.yul\":17020:17026   */\n      dup4\n        /* \"#utility.yul\":17017:17031   */\n      gt\n        /* \"#utility.yul\":17045:17046   */\n      0x01\n        /* \"#utility.yul\":17040:17658   */\n      dup2\n      eq\n      tag_302\n      jumpi\n        /* \"#utility.yul\":17702:17703   */\n      0x00\n        /* \"#utility.yul\":17719:17725   */\n      dup5\n        /* \"#utility.yul\":17716:17793   */\n      iszero\n      tag_303\n      jumpi\n        /* \"#utility.yul\":17768:17777   */\n      dup3\n        /* \"#utility.yul\":17763:17766   */\n      dup8\n        /* \"#utility.yul\":17759:17778   */\n      add\n        /* \"#utility.yul\":17753:17779   */\n      mload\n        /* \"#utility.yul\":17744:17779   */\n      swap1\n      pop\n        /* \"#utility.yul\":17716:17793   */\n    tag_303:\n        /* \"#utility.yul\":17819:17886   */\n      tag_304\n        /* \"#utility.yul\":17879:17885   */\n      dup6\n        /* \"#utility.yul\":17872:17877   */\n      dup3\n        /* \"#utility.yul\":17819:17886   */\n      tag_129\n      jump\t// in\n    tag_304:\n        /* \"#utility.yul\":17813:17817   */\n      dup7\n        /* \"#utility.yul\":17806:17887   */\n      sstore\n        /* \"#utility.yul\":17675:17897   */\n      pop\n        /* \"#utility.yul\":17010:17897   */\n      jump(tag_301)\n        /* \"#utility.yul\":17040:17658   */\n    tag_302:\n        /* \"#utility.yul\":17092:17096   */\n      0x1f\n        /* \"#utility.yul\":17088:17097   */\n      not\n        /* \"#utility.yul\":17080:17086   */\n      dup5\n        /* \"#utility.yul\":17076:17098   */\n      and\n        /* \"#utility.yul\":17126:17163   */\n      tag_305\n        /* \"#utility.yul\":17158:17162   */\n      dup7\n        /* \"#utility.yul\":17126:17163   */\n      tag_115\n      jump\t// in\n    tag_305:\n        /* \"#utility.yul\":17185:17186   */\n      0x00\n        /* \"#utility.yul\":17199:17407   */\n    tag_306:\n        /* \"#utility.yul\":17213:17220   */\n      dup3\n        /* \"#utility.yul\":17210:17211   */\n      dup2\n        /* \"#utility.yul\":17207:17221   */\n      lt\n        /* \"#utility.yul\":17199:17407   */\n      iszero\n      tag_308\n      jumpi\n        /* \"#utility.yul\":17292:17301   */\n      dup5\n        /* \"#utility.yul\":17287:17290   */\n      dup10\n        /* \"#utility.yul\":17283:17302   */\n      add\n        /* \"#utility.yul\":17277:17303   */\n      mload\n        /* \"#utility.yul\":17269:17275   */\n      dup3\n        /* \"#utility.yul\":17262:17304   */\n      sstore\n        /* \"#utility.yul\":17343:17344   */\n      0x01\n        /* \"#utility.yul\":17335:17341   */\n      dup3\n        /* \"#utility.yul\":17331:17345   */\n      add\n        /* \"#utility.yul\":17321:17345   */\n      swap2\n      pop\n        /* \"#utility.yul\":17390:17392   */\n      0x20\n        /* \"#utility.yul\":17379:17388   */\n      dup6\n        /* \"#utility.yul\":17375:17393   */\n      add\n        /* \"#utility.yul\":17362:17393   */\n      swap5\n      pop\n        /* \"#utility.yul\":17236:17240   */\n      0x20\n        /* \"#utility.yul\":17233:17234   */\n      dup2\n        /* \"#utility.yul\":17229:17241   */\n      add\n        /* \"#utility.yul\":17224:17241   */\n      swap1\n      pop\n        /* \"#utility.yul\":17199:17407   */\n      jump(tag_306)\n    tag_308:\n        /* \"#utility.yul\":17435:17441   */\n      dup7\n        /* \"#utility.yul\":17426:17433   */\n      dup4\n        /* \"#utility.yul\":17423:17442   */\n      lt\n        /* \"#utility.yul\":17420:17599   */\n      iszero\n      tag_309\n      jumpi\n        /* \"#utility.yul\":17493:17502   */\n      dup5\n        /* \"#utility.yul\":17488:17491   */\n      dup10\n        /* \"#utility.yul\":17484:17503   */\n      add\n        /* \"#utility.yul\":17478:17504   */\n      mload\n        /* \"#utility.yul\":17536:17584   */\n      tag_310\n        /* \"#utility.yul\":17578:17582   */\n      0x1f\n        /* \"#utility.yul\":17570:17576   */\n      dup10\n        /* \"#utility.yul\":17566:17583   */\n      and\n        /* \"#utility.yul\":17555:17564   */\n      dup3\n        /* \"#utility.yul\":17536:17584   */\n      tag_128\n      jump\t// in\n    tag_310:\n        /* \"#utility.yul\":17528:17534   */\n      dup4\n        /* \"#utility.yul\":17521:17585   */\n      sstore\n        /* \"#utility.yul\":17443:17599   */\n      pop\n        /* \"#utility.yul\":17420:17599   */\n    tag_309:\n        /* \"#utility.yul\":17645:17646   */\n      0x01\n        /* \"#utility.yul\":17641:17642   */\n      0x02\n        /* \"#utility.yul\":17633:17639   */\n      dup9\n        /* \"#utility.yul\":17629:17643   */\n      mul\n        /* \"#utility.yul\":17625:17647   */\n      add\n        /* \"#utility.yul\":17619:17623   */\n      dup9\n        /* \"#utility.yul\":17612:17648   */\n      sstore\n        /* \"#utility.yul\":17047:17658   */\n      pop\n      pop\n      pop\n        /* \"#utility.yul\":17010:17897   */\n    tag_301:\n      pop\n        /* \"#utility.yul\":16600:17903   */\n      pop\n      pop\n      pop\n        /* \"#utility.yul\":16508:17903   */\n      pop\n      pop\n      jump\t// out\n\n    auxdata: 0xa26469706673582212208a8325db653ca28172951fd7cbae68cd7789c2f3a40d0bd4831e5846840b829064736f6c63430008140033\n}\n",
				"bytecode": {
					"linkReferences": {},
					"object": "608060405234801561000f575f80fd5b506111d78061001d5f395ff3fe608060405234801561000f575f80fd5b5060043610610055575f3560e01c8063163f7522146100595780634d3820eb146100895780635de2fa7514610093578063a8cb5705146100b1578063e34f1221146100cd575b5f80fd5b610073600480360381019061006e919061093c565b6100e9565b6040516100809190610981565b60405180910390f35b61009161013d565b005b61009b6102de565b6040516100a89190610b53565b60405180910390f35b6100cb60048036038101906100c69190610b9d565b6104b3565b005b6100e760048036038101906100e29190610cf4565b6106f1565b005b5f805f8373ffffffffffffffffffffffffffffffffffffffff1673ffffffffffffffffffffffffffffffffffffffff1681526020019081526020015f205f0160149054906101000a900460ff169050919050565b5f803373ffffffffffffffffffffffffffffffffffffffff1673ffffffffffffffffffffffffffffffffffffffff1681526020019081526020015f205f0160149054906101000a900460ff16156101c9576040517f08c379a00000000000000000000000000000000000000000000000000000000081526004016101c090610d95565b60405180910390fd5b60405180604001604052803373ffffffffffffffffffffffffffffffffffffffff168152602001600115158152505f803373ffffffffffffffffffffffffffffffffffffffff1673ffffffffffffffffffffffffffffffffffffffff1681526020019081526020015f205f820151815f015f6101000a81548173ffffffffffffffffffffffffffffffffffffffff021916908373ffffffffffffffffffffffffffffffffffffffff1602179055506020820151815f0160146101000a81548160ff0219169083151502179055509050503373ffffffffffffffffffffffffffffffffffffffff167f54db7a5cb4735e1aac1f53db512d3390390bb6637bd30ad4bf9fc98667d9b9b960405160405180910390a2565b60605f803373ffffffffffffffffffffffffffffffffffffffff1673ffffffffffffffffffffffffffffffffffffffff1681526020019081526020015f205f0160149054906101000a900460ff1661036b576040517f08c379a000000000000000000000000000000000000000000000000000000000815260040161036290610dfd565b60405180910390fd5b60015f3373ffffffffffffffffffffffffffffffffffffffff1673ffffffffffffffffffffffffffffffffffffffff1681526020019081526020015f20805480602002602001604051908101604052809291908181526020015f905b828210156104aa578382905f5260205f2090600302016040518060600160405290815f820154815260200160018201805461040190610e48565b80601f016020809104026020016040519081016040528092919081815260200182805461042d90610e48565b80156104785780601f1061044f57610100808354040283529160200191610478565b820191905f5260205f20905b81548152906001019060200180831161045b57829003601f168201915b50505050508152602001600282015f9054906101000a900460ff161515151581525050815260200190600101906103c7565b50505050905090565b5f803373ffffffffffffffffffffffffffffffffffffffff1673ffffffffffffffffffffffffffffffffffffffff1681526020019081526020015f205f0160149054906101000a900460ff1661053e576040517f08c379a000000000000000000000000000000000000000000000000000000000815260040161053590610dfd565b60405180910390fd5b60015f3373ffffffffffffffffffffffffffffffffffffffff1673ffffffffffffffffffffffffffffffffffffffff1681526020019081526020015f208054905081106105c0576040517f08c379a00000000000000000000000000000000000000000000000000000000081526004016105b790610ec2565b60405180910390fd5b60015f3373ffffffffffffffffffffffffffffffffffffffff1673ffffffffffffffffffffffffffffffffffffffff1681526020019081526020015f20818154811061060f5761060e610ee0565b5b905f5260205f2090600302016002015f9054906101000a900460ff161560015f3373ffffffffffffffffffffffffffffffffffffffff1673ffffffffffffffffffffffffffffffffffffffff1681526020019081526020015f20828154811061067b5761067a610ee0565b5b905f5260205f2090600302016002015f6101000a81548160ff0219169083151502179055503373ffffffffffffffffffffffffffffffffffffffff167f67ded622a190b565ce61203d9279a5c28931773c0919bf91ce964f6cd909e9b4826040516106e69190610f1c565b60405180910390a250565b5f803373ffffffffffffffffffffffffffffffffffffffff1673ffffffffffffffffffffffffffffffffffffffff1681526020019081526020015f205f0160149054906101000a900460ff1661077c576040517f08c379a000000000000000000000000000000000000000000000000000000000815260040161077390610dfd565b60405180910390fd5b5f60015f3373ffffffffffffffffffffffffffffffffffffffff1673ffffffffffffffffffffffffffffffffffffffff1681526020019081526020015f2080549050905060015f3373ffffffffffffffffffffffffffffffffffffffff1673ffffffffffffffffffffffffffffffffffffffff1681526020019081526020015f2060405180606001604052808381526020018481526020015f1515815250908060018154018082558091505060019003905f5260205f2090600302015f909190919091505f820151815f0155602082015181600101908161085d91906110d2565b506040820151816002015f6101000a81548160ff02191690831515021790555050503373ffffffffffffffffffffffffffffffffffffffff167fe1b6ebe529a4c04654a36a99a3a625c397b21584237ffc09bc6ada36fa5b65f7826040516108c59190610f1c565b60405180910390a25050565b5f604051905090565b5f80fd5b5f80fd5b5f73ffffffffffffffffffffffffffffffffffffffff82169050919050565b5f61090b826108e2565b9050919050565b61091b81610901565b8114610925575f80fd5b50565b5f8135905061093681610912565b92915050565b5f60208284031215610951576109506108da565b5b5f61095e84828501610928565b91505092915050565b5f8115159050919050565b61097b81610967565b82525050565b5f6020820190506109945f830184610972565b92915050565b5f81519050919050565b5f82825260208201905092915050565b5f819050602082019050919050565b5f819050919050565b6109d5816109c3565b82525050565b5f81519050919050565b5f82825260208201905092915050565b5f5b83811015610a125780820151818401526020810190506109f7565b5f8484015250505050565b5f601f19601f8301169050919050565b5f610a37826109db565b610a4181856109e5565b9350610a518185602086016109f5565b610a5a81610a1d565b840191505092915050565b610a6e81610967565b82525050565b5f606083015f830151610a895f8601826109cc565b5060208301518482036020860152610aa18282610a2d565b9150506040830151610ab66040860182610a65565b508091505092915050565b5f610acc8383610a74565b905092915050565b5f602082019050919050565b5f610aea8261099a565b610af481856109a4565b935083602082028501610b06856109b4565b805f5b85811015610b415784840389528151610b228582610ac1565b9450610b2d83610ad4565b925060208a01995050600181019050610b09565b50829750879550505050505092915050565b5f6020820190508181035f830152610b6b8184610ae0565b905092915050565b610b7c816109c3565b8114610b86575f80fd5b50565b5f81359050610b9781610b73565b92915050565b5f60208284031215610bb257610bb16108da565b5b5f610bbf84828501610b89565b91505092915050565b5f80fd5b5f80fd5b7f4e487b71000000000000000000000000000000000000000000000000000000005f52604160045260245ffd5b610c0682610a1d565b810181811067ffffffffffffffff82111715610c2557610c24610bd0565b5b80604052505050565b5f610c376108d1565b9050610c438282610bfd565b919050565b5f67ffffffffffffffff821115610c6257610c61610bd0565b5b610c6b82610a1d565b9050602081019050919050565b828183375f83830152505050565b5f610c98610c9384610c48565b610c2e565b905082815260208101848484011115610cb457610cb3610bcc565b5b610cbf848285610c78565b509392505050565b5f82601f830112610cdb57610cda610bc8565b5b8135610ceb848260208601610c86565b91505092915050565b5f60208284031215610d0957610d086108da565b5b5f82013567ffffffffffffffff811115610d2657610d256108de565b5b610d3284828501610cc7565b91505092915050565b5f82825260208201905092915050565b7f5573657220616c726561647920726567697374657265640000000000000000005f82015250565b5f610d7f601783610d3b565b9150610d8a82610d4b565b602082019050919050565b5f6020820190508181035f830152610dac81610d73565b9050919050565b7f55736572206e6f742072656769737465726564000000000000000000000000005f82015250565b5f610de7601383610d3b565b9150610df282610db3565b602082019050919050565b5f6020820190508181035f830152610e1481610ddb565b9050919050565b7f4e487b71000000000000000000000000000000000000000000000000000000005f52602260045260245ffd5b5f6002820490506001821680610e5f57607f821691505b602082108103610e7257610e71610e1b565b5b50919050565b7f496e76616c696420746f646f20494400000000000000000000000000000000005f82015250565b5f610eac600f83610d3b565b9150610eb782610e78565b602082019050919050565b5f6020820190508181035f830152610ed981610ea0565b9050919050565b7f4e487b71000000000000000000000000000000000000000000000000000000005f52603260045260245ffd5b610f16816109c3565b82525050565b5f602082019050610f2f5f830184610f0d565b92915050565b5f819050815f5260205f209050919050565b5f6020601f8301049050919050565b5f82821b905092915050565b5f60088302610f917fffffffffffffffffffffffffffffffffffffffffffffffffffffffffffffffff82610f56565b610f9b8683610f56565b95508019841693508086168417925050509392505050565b5f819050919050565b5f610fd6610fd1610fcc846109c3565b610fb3565b6109c3565b9050919050565b5f819050919050565b610fef83610fbc565b611003610ffb82610fdd565b848454610f62565b825550505050565b5f90565b61101761100b565b611022818484610fe6565b505050565b5b818110156110455761103a5f8261100f565b600181019050611028565b5050565b601f82111561108a5761105b81610f35565b61106484610f47565b81016020851015611073578190505b61108761107f85610f47565b830182611027565b50505b505050565b5f82821c905092915050565b5f6110aa5f198460080261108f565b1980831691505092915050565b5f6110c2838361109b565b9150826002028217905092915050565b6110db826109db565b67ffffffffffffffff8111156110f4576110f3610bd0565b5b6110fe8254610e48565b611109828285611049565b5f60209050601f83116001811461113a575f8415611128578287015190505b61113285826110b7565b865550611199565b601f19841661114886610f35565b5f5b8281101561116f5784890151825560018201915060208501945060208101905061114a565b8683101561118c5784890151611188601f89168261109b565b8355505b6001600288020188555050505b50505050505056fea26469706673582212208a8325db653ca28172951fd7cbae68cd7789c2f3a40d0bd4831e5846840b829064736f6c63430008140033",
					"opcodes": "PUSH1 0x80 PUSH1 0x40 MSTORE CALLVALUE DUP1 ISZERO PUSH2 0xF JUMPI PUSH0 DUP1 REVERT JUMPDEST POP PUSH2 0x11D7 DUP1 PUSH2 0x1D PUSH0 CODECOPY PUSH0 RETURN INVALID PUSH1 0x80 PUSH1 0x40 MSTORE CALLVALUE DUP1 ISZERO PUSH2 0xF JUMPI PUSH0 DUP1 REVERT JUMPDEST POP PUSH1 0x4 CALLDATASIZE LT PUSH2 0x55 JUMPI PUSH0 CALLDATALOAD PUSH1 0xE0 SHR DUP1 PUSH4 0x163F7522 EQ PUSH2 0x59 JUMPI DUP1 PUSH4 0x4D3820EB EQ PUSH2 0x89 JUMPI DUP1 PUSH4 0x5DE2FA75 EQ PUSH2 0x93 JUMPI DUP1 PUSH4 0xA8CB5705 EQ PUSH2 0xB1 JUMPI DUP1 PUSH4 0xE34F1221 EQ PUSH2 0xCD JUMPI JUMPDEST PUSH0 DUP1 REVERT JUMPDEST PUSH2 0x73 PUSH1 0x4 DUP1 CALLDATASIZE SUB DUP2 ADD SWAP1 PUSH2 0x6E SWAP2 SWAP1 PUSH2 0x93C JUMP JUMPDEST PUSH2 0xE9 JUMP JUMPDEST PUSH1 0x40 MLOAD PUSH2 0x80 SWAP2 SWAP1 PUSH2 0x981 JUMP JUMPDEST PUSH1 0x40 MLOAD DUP1 SWAP2 SUB SWAP1 RETURN JUMPDEST PUSH2 0x91 PUSH2 0x13D JUMP JUMPDEST STOP JUMPDEST PUSH2 0x9B PUSH2 0x2DE JUMP JUMPDEST PUSH1 0x40 MLOAD PUSH2 0xA8 SWAP2 SWAP1 PUSH2 0xB53 JUMP JUMPDEST PUSH1 0x40 MLOAD DUP1 SWAP2 SUB SWAP1 RETURN JUMPDEST PUSH2 0xCB PUSH1 0x4 DUP1 CALLDATASIZE SUB DUP2 ADD SWAP1 PUSH2 0xC6 SWAP2 SWAP1 PUSH2 0xB9D JUMP JUMPDEST PUSH2 0x4B3 JUMP JUMPDEST STOP JUMPDEST PUSH2 0xE7 PUSH1 0x4 DUP1 CALLDATASIZE SUB DUP2 ADD SWAP1 PUSH2 0xE2 SWAP2 SWAP1 PUSH2 0xCF4 JUMP JUMPDEST PUSH2 0x6F1 JUMP JUMPDEST STOP JUMPDEST PUSH0 DUP1 PUSH0 DUP4 PUSH20 0xFFFFFFFFFFFFFFFFFFFFFFFFFFFFFFFFFFFFFFFF AND PUSH20 0xFFFFFFFFFFFFFFFFFFFFFFFFFFFFFFFFFFFFFFFF AND DUP2 MSTORE PUSH1 0x20 ADD SWAP1 DUP2 MSTORE PUSH1 0x20 ADD PUSH0 KECCAK256 PUSH0 ADD PUSH1 0x14 SWAP1 SLOAD SWAP1 PUSH2 0x100 EXP SWAP1 DIV PUSH1 0xFF AND SWAP1 POP SWAP2 SWAP1 POP JUMP JUMPDEST PUSH0 DUP1 CALLER PUSH20 0xFFFFFFFFFFFFFFFFFFFFFFFFFFFFFFFFFFFFFFFF AND PUSH20 0xFFFFFFFFFFFFFFFFFFFFFFFFFFFFFFFFFFFFFFFF AND DUP2 MSTORE PUSH1 0x20 ADD SWAP1 DUP2 MSTORE PUSH1 0x20 ADD PUSH0 KECCAK256 PUSH0 ADD PUSH1 0x14 SWAP1 SLOAD SWAP1 PUSH2 0x100 EXP SWAP1 DIV PUSH1 0xFF AND ISZERO PUSH2 0x1C9 JUMPI PUSH1 0x40 MLOAD PUSH32 0x8C379A000000000000000000000000000000000000000000000000000000000 DUP2 MSTORE PUSH1 0x4 ADD PUSH2 0x1C0 SWAP1 PUSH2 0xD95 JUMP JUMPDEST PUSH1 0x40 MLOAD DUP1 SWAP2 SUB SWAP1 REVERT JUMPDEST PUSH1 0x40 MLOAD DUP1 PUSH1 0x40 ADD PUSH1 0x40 MSTORE DUP1 CALLER PUSH20 0xFFFFFFFFFFFFFFFFFFFFFFFFFFFFFFFFFFFFFFFF AND DUP2 MSTORE PUSH1 0x20 ADD PUSH1 0x1 ISZERO ISZERO DUP2 MSTORE POP PUSH0 DUP1 CALLER PUSH20 0xFFFFFFFFFFFFFFFFFFFFFFFFFFFFFFFFFFFFFFFF AND PUSH20 0xFFFFFFFFFFFFFFFFFFFFFFFFFFFFFFFFFFFFFFFF AND DUP2 MSTORE PUSH1 0x20 ADD SWAP1 DUP2 MSTORE PUSH1 0x20 ADD PUSH0 KECCAK256 PUSH0 DUP3 ADD MLOAD DUP2 PUSH0 ADD PUSH0 PUSH2 0x100 EXP DUP2 SLOAD DUP2 PUSH20 0xFFFFFFFFFFFFFFFFFFFFFFFFFFFFFFFFFFFFFFFF MUL NOT AND SWAP1 DUP4 PUSH20 0xFFFFFFFFFFFFFFFFFFFFFFFFFFFFFFFFFFFFFFFF AND MUL OR SWAP1 SSTORE POP PUSH1 0x20 DUP3 ADD MLOAD DUP2 PUSH0 ADD PUSH1 0x14 PUSH2 0x100 EXP DUP2 SLOAD DUP2 PUSH1 0xFF MUL NOT AND SWAP1 DUP4 ISZERO ISZERO MUL OR SWAP1 SSTORE POP SWAP1 POP POP CALLER PUSH20 0xFFFFFFFFFFFFFFFFFFFFFFFFFFFFFFFFFFFFFFFF AND PUSH32 0x54DB7A5CB4735E1AAC1F53DB512D3390390BB6637BD30AD4BF9FC98667D9B9B9 PUSH1 0x40 MLOAD PUSH1 0x40 MLOAD DUP1 SWAP2 SUB SWAP1 LOG2 JUMP JUMPDEST PUSH1 0x60 PUSH0 DUP1 CALLER PUSH20 0xFFFFFFFFFFFFFFFFFFFFFFFFFFFFFFFFFFFFFFFF AND PUSH20 0xFFFFFFFFFFFFFFFFFFFFFFFFFFFFFFFFFFFFFFFF AND DUP2 MSTORE PUSH1 0x20 ADD SWAP1 DUP2 MSTORE PUSH1 0x20 ADD PUSH0 KECCAK256 PUSH0 ADD PUSH1 0x14 SWAP1 SLOAD SWAP1 PUSH2 0x100 EXP SWAP1 DIV PUSH1 0xFF AND PUSH2 0x36B JUMPI PUSH1 0x40 MLOAD PUSH32 0x8C379A000000000000000000000000000000000000000000000000000000000 DUP2 MSTORE PUSH1 0x4 ADD PUSH2 0x362 SWAP1 PUSH2 0xDFD JUMP JUMPDEST PUSH1 0x40 MLOAD DUP1 SWAP2 SUB SWAP1 REVERT JUMPDEST PUSH1 0x1 PUSH0 CALLER PUSH20 0xFFFFFFFFFFFFFFFFFFFFFFFFFFFFFFFFFFFFFFFF AND PUSH20 0xFFFFFFFFFFFFFFFFFFFFFFFFFFFFFFFFFFFFFFFF AND DUP2 MSTORE PUSH1 0x20 ADD SWAP1 DUP2 MSTORE PUSH1 0x20 ADD PUSH0 KECCAK256 DUP1 SLOAD DUP1 PUSH1 0x20 MUL PUSH1 0x20 ADD PUSH1 0x40 MLOAD SWAP1 DUP2 ADD PUSH1 0x40 MSTORE DUP1 SWAP3 SWAP2 SWAP1 DUP2 DUP2 MSTORE PUSH1 0x20 ADD PUSH0 SWAP1 JUMPDEST DUP3 DUP3 LT ISZERO PUSH2 0x4AA JUMPI DUP4 DUP3 SWAP1 PUSH0 MSTORE PUSH1 0x20 PUSH0 KECCAK256 SWAP1 PUSH1 0x3 MUL ADD PUSH1 0x40 MLOAD DUP1 PUSH1 0x60 ADD PUSH1 0x40 MSTORE SWAP1 DUP2 PUSH0 DUP3 ADD SLOAD DUP2 MSTORE PUSH1 0x20 ADD PUSH1 0x1 DUP3 ADD DUP1 SLOAD PUSH2 0x401 SWAP1 PUSH2 0xE48 JUMP JUMPDEST DUP1 PUSH1 0x1F ADD PUSH1 0x20 DUP1 SWAP2 DIV MUL PUSH1 0x20 ADD PUSH1 0x40 MLOAD SWAP1 DUP2 ADD PUSH1 0x40 MSTORE DUP1 SWAP3 SWAP2 SWAP1 DUP2 DUP2 MSTORE PUSH1 0x20 ADD DUP3 DUP1 SLOAD PUSH2 0x42D SWAP1 PUSH2 0xE48 JUMP JUMPDEST DUP1 ISZERO PUSH2 0x478 JUMPI DUP1 PUSH1 0x1F LT PUSH2 0x44F JUMPI PUSH2 0x100 DUP1 DUP4 SLOAD DIV MUL DUP4 MSTORE SWAP2 PUSH1 0x20 ADD SWAP2 PUSH2 0x478 JUMP JUMPDEST DUP3 ADD SWAP2 SWAP1 PUSH0 MSTORE PUSH1 0x20 PUSH0 KECCAK256 SWAP1 JUMPDEST DUP2 SLOAD DUP2 MSTORE SWAP1 PUSH1 0x1 ADD SWAP1 PUSH1 0x20 ADD DUP1 DUP4 GT PUSH2 0x45B JUMPI DUP3 SWAP1 SUB PUSH1 0x1F AND DUP3 ADD SWAP2 JUMPDEST POP POP POP POP POP DUP2 MSTORE PUSH1 0x20 ADD PUSH1 0x2 DUP3 ADD PUSH0 SWAP1 SLOAD SWAP1 PUSH2 0x100 EXP SWAP1 DIV PUSH1 0xFF AND ISZERO ISZERO ISZERO ISZERO DUP2 MSTORE POP POP DUP2 MSTORE PUSH1 0x20 ADD SWAP1 PUSH1 0x1 ADD SWAP1 PUSH2 0x3C7 JUMP JUMPDEST POP POP POP POP SWAP1 POP SWAP1 JUMP JUMPDEST PUSH0 DUP1 CALLER PUSH20 0xFFFFFFFFFFFFFFFFFFFFFFFFFFFFFFFFFFFFFFFF AND PUSH20 0xFFFFFFFFFFFFFFFFFFFFFFFFFFFFFFFFFFFFFFFF AND DUP2 MSTORE PUSH1 0x20 ADD SWAP1 DUP2 MSTORE PUSH1 0x20 ADD PUSH0 KECCAK256 PUSH0 ADD PUSH1 0x14 SWAP1 SLOAD SWAP1 PUSH2 0x100 EXP SWAP1 DIV PUSH1 0xFF AND PUSH2 0x53E JUMPI PUSH1 0x40 MLOAD PUSH32 0x8C379A000000000000000000000000000000000000000000000000000000000 DUP2 MSTORE PUSH1 0x4 ADD PUSH2 0x535 SWAP1 PUSH2 0xDFD JUMP JUMPDEST PUSH1 0x40 MLOAD DUP1 SWAP2 SUB SWAP1 REVERT JUMPDEST PUSH1 0x1 PUSH0 CALLER PUSH20 0xFFFFFFFFFFFFFFFFFFFFFFFFFFFFFFFFFFFFFFFF AND PUSH20 0xFFFFFFFFFFFFFFFFFFFFFFFFFFFFFFFFFFFFFFFF AND DUP2 MSTORE PUSH1 0x20 ADD SWAP1 DUP2 MSTORE PUSH1 0x20 ADD PUSH0 KECCAK256 DUP1 SLOAD SWAP1 POP DUP2 LT PUSH2 0x5C0 JUMPI PUSH1 0x40 MLOAD PUSH32 0x8C379A000000000000000000000000000000000000000000000000000000000 DUP2 MSTORE PUSH1 0x4 ADD PUSH2 0x5B7 SWAP1 PUSH2 0xEC2 JUMP JUMPDEST PUSH1 0x40 MLOAD DUP1 SWAP2 SUB SWAP1 REVERT JUMPDEST PUSH1 0x1 PUSH0 CALLER PUSH20 0xFFFFFFFFFFFFFFFFFFFFFFFFFFFFFFFFFFFFFFFF AND PUSH20 0xFFFFFFFFFFFFFFFFFFFFFFFFFFFFFFFFFFFFFFFF AND DUP2 MSTORE PUSH1 0x20 ADD SWAP1 DUP2 MSTORE PUSH1 0x20 ADD PUSH0 KECCAK256 DUP2 DUP2 SLOAD DUP2 LT PUSH2 0x60F JUMPI PUSH2 0x60E PUSH2 0xEE0 JUMP JUMPDEST JUMPDEST SWAP1 PUSH0 MSTORE PUSH1 0x20 PUSH0 KECCAK256 SWAP1 PUSH1 0x3 MUL ADD PUSH1 0x2 ADD PUSH0 SWAP1 SLOAD SWAP1 PUSH2 0x100 EXP SWAP1 DIV PUSH1 0xFF AND ISZERO PUSH1 0x1 PUSH0 CALLER PUSH20 0xFFFFFFFFFFFFFFFFFFFFFFFFFFFFFFFFFFFFFFFF AND PUSH20 0xFFFFFFFFFFFFFFFFFFFFFFFFFFFFFFFFFFFFFFFF AND DUP2 MSTORE PUSH1 0x20 ADD SWAP1 DUP2 MSTORE PUSH1 0x20 ADD PUSH0 KECCAK256 DUP3 DUP2 SLOAD DUP2 LT PUSH2 0x67B JUMPI PUSH2 0x67A PUSH2 0xEE0 JUMP JUMPDEST JUMPDEST SWAP1 PUSH0 MSTORE PUSH1 0x20 PUSH0 KECCAK256 SWAP1 PUSH1 0x3 MUL ADD PUSH1 0x2 ADD PUSH0 PUSH2 0x100 EXP DUP2 SLOAD DUP2 PUSH1 0xFF MUL NOT AND SWAP1 DUP4 ISZERO ISZERO MUL OR SWAP1 SSTORE POP CALLER PUSH20 0xFFFFFFFFFFFFFFFFFFFFFFFFFFFFFFFFFFFFFFFF AND PUSH32 0x67DED622A190B565CE61203D9279A5C28931773C0919BF91CE964F6CD909E9B4 DUP3 PUSH1 0x40 MLOAD PUSH2 0x6E6 SWAP2 SWAP1 PUSH2 0xF1C JUMP JUMPDEST PUSH1 0x40 MLOAD DUP1 SWAP2 SUB SWAP1 LOG2 POP JUMP JUMPDEST PUSH0 DUP1 CALLER PUSH20 0xFFFFFFFFFFFFFFFFFFFFFFFFFFFFFFFFFFFFFFFF AND PUSH20 0xFFFFFFFFFFFFFFFFFFFFFFFFFFFFFFFFFFFFFFFF AND DUP2 MSTORE PUSH1 0x20 ADD SWAP1 DUP2 MSTORE PUSH1 0x20 ADD PUSH0 KECCAK256 PUSH0 ADD PUSH1 0x14 SWAP1 SLOAD SWAP1 PUSH2 0x100 EXP SWAP1 DIV PUSH1 0xFF AND PUSH2 0x77C JUMPI PUSH1 0x40 MLOAD PUSH32 0x8C379A000000000000000000000000000000000000000000000000000000000 DUP2 MSTORE PUSH1 0x4 ADD PUSH2 0x773 SWAP1 PUSH2 0xDFD JUMP JUMPDEST PUSH1 0x40 MLOAD DUP1 SWAP2 SUB SWAP1 REVERT JUMPDEST PUSH0 PUSH1 0x1 PUSH0 CALLER PUSH20 0xFFFFFFFFFFFFFFFFFFFFFFFFFFFFFFFFFFFFFFFF AND PUSH20 0xFFFFFFFFFFFFFFFFFFFFFFFFFFFFFFFFFFFFFFFF AND DUP2 MSTORE PUSH1 0x20 ADD SWAP1 DUP2 MSTORE PUSH1 0x20 ADD PUSH0 KECCAK256 DUP1 SLOAD SWAP1 POP SWAP1 POP PUSH1 0x1 PUSH0 CALLER PUSH20 0xFFFFFFFFFFFFFFFFFFFFFFFFFFFFFFFFFFFFFFFF AND PUSH20 0xFFFFFFFFFFFFFFFFFFFFFFFFFFFFFFFFFFFFFFFF AND DUP2 MSTORE PUSH1 0x20 ADD SWAP1 DUP2 MSTORE PUSH1 0x20 ADD PUSH0 KECCAK256 PUSH1 0x40 MLOAD DUP1 PUSH1 0x60 ADD PUSH1 0x40 MSTORE DUP1 DUP4 DUP2 MSTORE PUSH1 0x20 ADD DUP5 DUP2 MSTORE PUSH1 0x20 ADD PUSH0 ISZERO ISZERO DUP2 MSTORE POP SWAP1 DUP1 PUSH1 0x1 DUP2 SLOAD ADD DUP1 DUP3 SSTORE DUP1 SWAP2 POP POP PUSH1 0x1 SWAP1 SUB SWAP1 PUSH0 MSTORE PUSH1 0x20 PUSH0 KECCAK256 SWAP1 PUSH1 0x3 MUL ADD PUSH0 SWAP1 SWAP2 SWAP1 SWAP2 SWAP1 SWAP2 POP PUSH0 DUP3 ADD MLOAD DUP2 PUSH0 ADD SSTORE PUSH1 0x20 DUP3 ADD MLOAD DUP2 PUSH1 0x1 ADD SWAP1 DUP2 PUSH2 0x85D SWAP2 SWAP1 PUSH2 0x10D2 JUMP JUMPDEST POP PUSH1 0x40 DUP3 ADD MLOAD DUP2 PUSH1 0x2 ADD PUSH0 PUSH2 0x100 EXP DUP2 SLOAD DUP2 PUSH1 0xFF MUL NOT AND SWAP1 DUP4 ISZERO ISZERO MUL OR SWAP1 SSTORE POP POP POP CALLER PUSH20 0xFFFFFFFFFFFFFFFFFFFFFFFFFFFFFFFFFFFFFFFF AND PUSH32 0xE1B6EBE529A4C04654A36A99A3A625C397B21584237FFC09BC6ADA36FA5B65F7 DUP3 PUSH1 0x40 MLOAD PUSH2 0x8C5 SWAP2 SWAP1 PUSH2 0xF1C JUMP JUMPDEST PUSH1 0x40 MLOAD DUP1 SWAP2 SUB SWAP1 LOG2 POP POP JUMP JUMPDEST PUSH0 PUSH1 0x40 MLOAD SWAP1 POP SWAP1 JUMP JUMPDEST PUSH0 DUP1 REVERT JUMPDEST PUSH0 DUP1 REVERT JUMPDEST PUSH0 PUSH20 0xFFFFFFFFFFFFFFFFFFFFFFFFFFFFFFFFFFFFFFFF DUP3 AND SWAP1 POP SWAP2 SWAP1 POP JUMP JUMPDEST PUSH0 PUSH2 0x90B DUP3 PUSH2 0x8E2 JUMP JUMPDEST SWAP1 POP SWAP2 SWAP1 POP JUMP JUMPDEST PUSH2 0x91B DUP2 PUSH2 0x901 JUMP JUMPDEST DUP2 EQ PUSH2 0x925 JUMPI PUSH0 DUP1 REVERT JUMPDEST POP JUMP JUMPDEST PUSH0 DUP2 CALLDATALOAD SWAP1 POP PUSH2 0x936 DUP2 PUSH2 0x912 JUMP JUMPDEST SWAP3 SWAP2 POP POP JUMP JUMPDEST PUSH0 PUSH1 0x20 DUP3 DUP5 SUB SLT ISZERO PUSH2 0x951 JUMPI PUSH2 0x950 PUSH2 0x8DA JUMP JUMPDEST JUMPDEST PUSH0 PUSH2 0x95E DUP5 DUP3 DUP6 ADD PUSH2 0x928 JUMP JUMPDEST SWAP2 POP POP SWAP3 SWAP2 POP POP JUMP JUMPDEST PUSH0 DUP2 ISZERO ISZERO SWAP1 POP SWAP2 SWAP1 POP JUMP JUMPDEST PUSH2 0x97B DUP2 PUSH2 0x967 JUMP JUMPDEST DUP3 MSTORE POP POP JUMP JUMPDEST PUSH0 PUSH1 0x20 DUP3 ADD SWAP1 POP PUSH2 0x994 PUSH0 DUP4 ADD DUP5 PUSH2 0x972 JUMP JUMPDEST SWAP3 SWAP2 POP POP JUMP JUMPDEST PUSH0 DUP2 MLOAD SWAP1 POP SWAP2 SWAP1 POP JUMP JUMPDEST PUSH0 DUP3 DUP3 MSTORE PUSH1 0x20 DUP3 ADD SWAP1 POP SWAP3 SWAP2 POP POP JUMP JUMPDEST PUSH0 DUP2 SWAP1 POP PUSH1 0x20 DUP3 ADD SWAP1 POP SWAP2 SWAP1 POP JUMP JUMPDEST PUSH0 DUP2 SWAP1 POP SWAP2 SWAP1 POP JUMP JUMPDEST PUSH2 0x9D5 DUP2 PUSH2 0x9C3 JUMP JUMPDEST DUP3 MSTORE POP POP JUMP JUMPDEST PUSH0 DUP2 MLOAD SWAP1 POP SWAP2 SWAP1 POP JUMP JUMPDEST PUSH0 DUP3 DUP3 MSTORE PUSH1 0x20 DUP3 ADD SWAP1 POP SWAP3 SWAP2 POP POP JUMP JUMPDEST PUSH0 JUMPDEST DUP4 DUP2 LT ISZERO PUSH2 0xA12 JUMPI DUP1 DUP3 ADD MLOAD DUP2 DUP5 ADD MSTORE PUSH1 0x20 DUP2 ADD SWAP1 POP PUSH2 0x9F7 JUMP JUMPDEST PUSH0 DUP5 DUP5 ADD MSTORE POP POP POP POP JUMP JUMPDEST PUSH0 PUSH1 0x1F NOT PUSH1 0x1F DUP4 ADD AND SWAP1 POP SWAP2 SWAP1 POP JUMP JUMPDEST PUSH0 PUSH2 0xA37 DUP3 PUSH2 0x9DB JUMP JUMPDEST PUSH2 0xA41 DUP2 DUP6 PUSH2 0x9E5 JUMP JUMPDEST SWAP4 POP PUSH2 0xA51 DUP2 DUP6 PUSH1 0x20 DUP7 ADD PUSH2 0x9F5 JUMP JUMPDEST PUSH2 0xA5A DUP2 PUSH2 0xA1D JUMP JUMPDEST DUP5 ADD SWAP2 POP POP SWAP3 SWAP2 POP POP JUMP JUMPDEST PUSH2 0xA6E DUP2 PUSH2 0x967 JUMP JUMPDEST DUP3 MSTORE POP POP JUMP JUMPDEST PUSH0 PUSH1 0x60 DUP4 ADD PUSH0 DUP4 ADD MLOAD PUSH2 0xA89 PUSH0 DUP7 ADD DUP3 PUSH2 0x9CC JUMP JUMPDEST POP PUSH1 0x20 DUP4 ADD MLOAD DUP5 DUP3 SUB PUSH1 0x20 DUP7 ADD MSTORE PUSH2 0xAA1 DUP3 DUP3 PUSH2 0xA2D JUMP JUMPDEST SWAP2 POP POP PUSH1 0x40 DUP4 ADD MLOAD PUSH2 0xAB6 PUSH1 0x40 DUP7 ADD DUP3 PUSH2 0xA65 JUMP JUMPDEST POP DUP1 SWAP2 POP POP SWAP3 SWAP2 POP POP JUMP JUMPDEST PUSH0 PUSH2 0xACC DUP4 DUP4 PUSH2 0xA74 JUMP JUMPDEST SWAP1 POP SWAP3 SWAP2 POP POP JUMP JUMPDEST PUSH0 PUSH1 0x20 DUP3 ADD SWAP1 POP SWAP2 SWAP1 POP JUMP JUMPDEST PUSH0 PUSH2 0xAEA DUP3 PUSH2 0x99A JUMP JUMPDEST PUSH2 0xAF4 DUP2 DUP6 PUSH2 0x9A4 JUMP JUMPDEST SWAP4 POP DUP4 PUSH1 0x20 DUP3 MUL DUP6 ADD PUSH2 0xB06 DUP6 PUSH2 0x9B4 JUMP JUMPDEST DUP1 PUSH0 JUMPDEST DUP6 DUP2 LT ISZERO PUSH2 0xB41 JUMPI DUP5 DUP5 SUB DUP10 MSTORE DUP2 MLOAD PUSH2 0xB22 DUP6 DUP3 PUSH2 0xAC1 JUMP JUMPDEST SWAP5 POP PUSH2 0xB2D DUP4 PUSH2 0xAD4 JUMP JUMPDEST SWAP3 POP PUSH1 0x20 DUP11 ADD SWAP10 POP POP PUSH1 0x1 DUP2 ADD SWAP1 POP PUSH2 0xB09 JUMP JUMPDEST POP DUP3 SWAP8 POP DUP8 SWAP6 POP POP POP POP POP POP SWAP3 SWAP2 POP POP JUMP JUMPDEST PUSH0 PUSH1 0x20 DUP3 ADD SWAP1 POP DUP2 DUP2 SUB PUSH0 DUP4 ADD MSTORE PUSH2 0xB6B DUP2 DUP5 PUSH2 0xAE0 JUMP JUMPDEST SWAP1 POP SWAP3 SWAP2 POP POP JUMP JUMPDEST PUSH2 0xB7C DUP2 PUSH2 0x9C3 JUMP JUMPDEST DUP2 EQ PUSH2 0xB86 JUMPI PUSH0 DUP1 REVERT JUMPDEST POP JUMP JUMPDEST PUSH0 DUP2 CALLDATALOAD SWAP1 POP PUSH2 0xB97 DUP2 PUSH2 0xB73 JUMP JUMPDEST SWAP3 SWAP2 POP POP JUMP JUMPDEST PUSH0 PUSH1 0x20 DUP3 DUP5 SUB SLT ISZERO PUSH2 0xBB2 JUMPI PUSH2 0xBB1 PUSH2 0x8DA JUMP JUMPDEST JUMPDEST PUSH0 PUSH2 0xBBF DUP5 DUP3 DUP6 ADD PUSH2 0xB89 JUMP JUMPDEST SWAP2 POP POP SWAP3 SWAP2 POP POP JUMP JUMPDEST PUSH0 DUP1 REVERT JUMPDEST PUSH0 DUP1 REVERT JUMPDEST PUSH32 0x4E487B7100000000000000000000000000000000000000000000000000000000 PUSH0 MSTORE PUSH1 0x41 PUSH1 0x4 MSTORE PUSH1 0x24 PUSH0 REVERT JUMPDEST PUSH2 0xC06 DUP3 PUSH2 0xA1D JUMP JUMPDEST DUP2 ADD DUP2 DUP2 LT PUSH8 0xFFFFFFFFFFFFFFFF DUP3 GT OR ISZERO PUSH2 0xC25 JUMPI PUSH2 0xC24 PUSH2 0xBD0 JUMP JUMPDEST JUMPDEST DUP1 PUSH1 0x40 MSTORE POP POP POP JUMP JUMPDEST PUSH0 PUSH2 0xC37 PUSH2 0x8D1 JUMP JUMPDEST SWAP1 POP PUSH2 0xC43 DUP3 DUP3 PUSH2 0xBFD JUMP JUMPDEST SWAP2 SWAP1 POP JUMP JUMPDEST PUSH0 PUSH8 0xFFFFFFFFFFFFFFFF DUP3 GT ISZERO PUSH2 0xC62 JUMPI PUSH2 0xC61 PUSH2 0xBD0 JUMP JUMPDEST JUMPDEST PUSH2 0xC6B DUP3 PUSH2 0xA1D JUMP JUMPDEST SWAP1 POP PUSH1 0x20 DUP2 ADD SWAP1 POP SWAP2 SWAP1 POP JUMP JUMPDEST DUP3 DUP2 DUP4 CALLDATACOPY PUSH0 DUP4 DUP4 ADD MSTORE POP POP POP JUMP JUMPDEST PUSH0 PUSH2 0xC98 PUSH2 0xC93 DUP5 PUSH2 0xC48 JUMP JUMPDEST PUSH2 0xC2E JUMP JUMPDEST SWAP1 POP DUP3 DUP2 MSTORE PUSH1 0x20 DUP2 ADD DUP5 DUP5 DUP5 ADD GT ISZERO PUSH2 0xCB4 JUMPI PUSH2 0xCB3 PUSH2 0xBCC JUMP JUMPDEST JUMPDEST PUSH2 0xCBF DUP5 DUP3 DUP6 PUSH2 0xC78 JUMP JUMPDEST POP SWAP4 SWAP3 POP POP POP JUMP JUMPDEST PUSH0 DUP3 PUSH1 0x1F DUP4 ADD SLT PUSH2 0xCDB JUMPI PUSH2 0xCDA PUSH2 0xBC8 JUMP JUMPDEST JUMPDEST DUP2 CALLDATALOAD PUSH2 0xCEB DUP5 DUP3 PUSH1 0x20 DUP7 ADD PUSH2 0xC86 JUMP JUMPDEST SWAP2 POP POP SWAP3 SWAP2 POP POP JUMP JUMPDEST PUSH0 PUSH1 0x20 DUP3 DUP5 SUB SLT ISZERO PUSH2 0xD09 JUMPI PUSH2 0xD08 PUSH2 0x8DA JUMP JUMPDEST JUMPDEST PUSH0 DUP3 ADD CALLDATALOAD PUSH8 0xFFFFFFFFFFFFFFFF DUP2 GT ISZERO PUSH2 0xD26 JUMPI PUSH2 0xD25 PUSH2 0x8DE JUMP JUMPDEST JUMPDEST PUSH2 0xD32 DUP5 DUP3 DUP6 ADD PUSH2 0xCC7 JUMP JUMPDEST SWAP2 POP POP SWAP3 SWAP2 POP POP JUMP JUMPDEST PUSH0 DUP3 DUP3 MSTORE PUSH1 0x20 DUP3 ADD SWAP1 POP SWAP3 SWAP2 POP POP JUMP JUMPDEST PUSH32 0x5573657220616C72656164792072656769737465726564000000000000000000 PUSH0 DUP3 ADD MSTORE POP JUMP JUMPDEST PUSH0 PUSH2 0xD7F PUSH1 0x17 DUP4 PUSH2 0xD3B JUMP JUMPDEST SWAP2 POP PUSH2 0xD8A DUP3 PUSH2 0xD4B JUMP JUMPDEST PUSH1 0x20 DUP3 ADD SWAP1 POP SWAP2 SWAP1 POP JUMP JUMPDEST PUSH0 PUSH1 0x20 DUP3 ADD SWAP1 POP DUP2 DUP2 SUB PUSH0 DUP4 ADD MSTORE PUSH2 0xDAC DUP2 PUSH2 0xD73 JUMP JUMPDEST SWAP1 POP SWAP2 SWAP1 POP JUMP JUMPDEST PUSH32 0x55736572206E6F74207265676973746572656400000000000000000000000000 PUSH0 DUP3 ADD MSTORE POP JUMP JUMPDEST PUSH0 PUSH2 0xDE7 PUSH1 0x13 DUP4 PUSH2 0xD3B JUMP JUMPDEST SWAP2 POP PUSH2 0xDF2 DUP3 PUSH2 0xDB3 JUMP JUMPDEST PUSH1 0x20 DUP3 ADD SWAP1 POP SWAP2 SWAP1 POP JUMP JUMPDEST PUSH0 PUSH1 0x20 DUP3 ADD SWAP1 POP DUP2 DUP2 SUB PUSH0 DUP4 ADD MSTORE PUSH2 0xE14 DUP2 PUSH2 0xDDB JUMP JUMPDEST SWAP1 POP SWAP2 SWAP1 POP JUMP JUMPDEST PUSH32 0x4E487B7100000000000000000000000000000000000000000000000000000000 PUSH0 MSTORE PUSH1 0x22 PUSH1 0x4 MSTORE PUSH1 0x24 PUSH0 REVERT JUMPDEST PUSH0 PUSH1 0x2 DUP3 DIV SWAP1 POP PUSH1 0x1 DUP3 AND DUP1 PUSH2 0xE5F JUMPI PUSH1 0x7F DUP3 AND SWAP2 POP JUMPDEST PUSH1 0x20 DUP3 LT DUP2 SUB PUSH2 0xE72 JUMPI PUSH2 0xE71 PUSH2 0xE1B JUMP JUMPDEST JUMPDEST POP SWAP2 SWAP1 POP JUMP JUMPDEST PUSH32 0x496E76616C696420746F646F2049440000000000000000000000000000000000 PUSH0 DUP3 ADD MSTORE POP JUMP JUMPDEST PUSH0 PUSH2 0xEAC PUSH1 0xF DUP4 PUSH2 0xD3B JUMP JUMPDEST SWAP2 POP PUSH2 0xEB7 DUP3 PUSH2 0xE78 JUMP JUMPDEST PUSH1 0x20 DUP3 ADD SWAP1 POP SWAP2 SWAP1 POP JUMP JUMPDEST PUSH0 PUSH1 0x20 DUP3 ADD SWAP1 POP DUP2 DUP2 SUB PUSH0 DUP4 ADD MSTORE PUSH2 0xED9 DUP2 PUSH2 0xEA0 JUMP JUMPDEST SWAP1 POP SWAP2 SWAP1 POP JUMP JUMPDEST PUSH32 0x4E487B7100000000000000000000000000000000000000000000000000000000 PUSH0 MSTORE PUSH1 0x32 PUSH1 0x4 MSTORE PUSH1 0x24 PUSH0 REVERT JUMPDEST PUSH2 0xF16 DUP2 PUSH2 0x9C3 JUMP JUMPDEST DUP3 MSTORE POP POP JUMP JUMPDEST PUSH0 PUSH1 0x20 DUP3 ADD SWAP1 POP PUSH2 0xF2F PUSH0 DUP4 ADD DUP5 PUSH2 0xF0D JUMP JUMPDEST SWAP3 SWAP2 POP POP JUMP JUMPDEST PUSH0 DUP2 SWAP1 POP DUP2 PUSH0 MSTORE PUSH1 0x20 PUSH0 KECCAK256 SWAP1 POP SWAP2 SWAP1 POP JUMP JUMPDEST PUSH0 PUSH1 0x20 PUSH1 0x1F DUP4 ADD DIV SWAP1 POP SWAP2 SWAP1 POP JUMP JUMPDEST PUSH0 DUP3 DUP3 SHL SWAP1 POP SWAP3 SWAP2 POP POP JUMP JUMPDEST PUSH0 PUSH1 0x8 DUP4 MUL PUSH2 0xF91 PUSH32 0xFFFFFFFFFFFFFFFFFFFFFFFFFFFFFFFFFFFFFFFFFFFFFFFFFFFFFFFFFFFFFFFF DUP3 PUSH2 0xF56 JUMP JUMPDEST PUSH2 0xF9B DUP7 DUP4 PUSH2 0xF56 JUMP JUMPDEST SWAP6 POP DUP1 NOT DUP5 AND SWAP4 POP DUP1 DUP7 AND DUP5 OR SWAP3 POP POP POP SWAP4 SWAP3 POP POP POP JUMP JUMPDEST PUSH0 DUP2 SWAP1 POP SWAP2 SWAP1 POP JUMP JUMPDEST PUSH0 PUSH2 0xFD6 PUSH2 0xFD1 PUSH2 0xFCC DUP5 PUSH2 0x9C3 JUMP JUMPDEST PUSH2 0xFB3 JUMP JUMPDEST PUSH2 0x9C3 JUMP JUMPDEST SWAP1 POP SWAP2 SWAP1 POP JUMP JUMPDEST PUSH0 DUP2 SWAP1 POP SWAP2 SWAP1 POP JUMP JUMPDEST PUSH2 0xFEF DUP4 PUSH2 0xFBC JUMP JUMPDEST PUSH2 0x1003 PUSH2 0xFFB DUP3 PUSH2 0xFDD JUMP JUMPDEST DUP5 DUP5 SLOAD PUSH2 0xF62 JUMP JUMPDEST DUP3 SSTORE POP POP POP POP JUMP JUMPDEST PUSH0 SWAP1 JUMP JUMPDEST PUSH2 0x1017 PUSH2 0x100B JUMP JUMPDEST PUSH2 0x1022 DUP2 DUP5 DUP5 PUSH2 0xFE6 JUMP JUMPDEST POP POP POP JUMP JUMPDEST JUMPDEST DUP2 DUP2 LT ISZERO PUSH2 0x1045 JUMPI PUSH2 0x103A PUSH0 DUP3 PUSH2 0x100F JUMP JUMPDEST PUSH1 0x1 DUP2 ADD SWAP1 POP PUSH2 0x1028 JUMP JUMPDEST POP POP JUMP JUMPDEST PUSH1 0x1F DUP3 GT ISZERO PUSH2 0x108A JUMPI PUSH2 0x105B DUP2 PUSH2 0xF35 JUMP JUMPDEST PUSH2 0x1064 DUP5 PUSH2 0xF47 JUMP JUMPDEST DUP2 ADD PUSH1 0x20 DUP6 LT ISZERO PUSH2 0x1073 JUMPI DUP2 SWAP1 POP JUMPDEST PUSH2 0x1087 PUSH2 0x107F DUP6 PUSH2 0xF47 JUMP JUMPDEST DUP4 ADD DUP3 PUSH2 0x1027 JUMP JUMPDEST POP POP JUMPDEST POP POP POP JUMP JUMPDEST PUSH0 DUP3 DUP3 SHR SWAP1 POP SWAP3 SWAP2 POP POP JUMP JUMPDEST PUSH0 PUSH2 0x10AA PUSH0 NOT DUP5 PUSH1 0x8 MUL PUSH2 0x108F JUMP JUMPDEST NOT DUP1 DUP4 AND SWAP2 POP POP SWAP3 SWAP2 POP POP JUMP JUMPDEST PUSH0 PUSH2 0x10C2 DUP4 DUP4 PUSH2 0x109B JUMP JUMPDEST SWAP2 POP DUP3 PUSH1 0x2 MUL DUP3 OR SWAP1 POP SWAP3 SWAP2 POP POP JUMP JUMPDEST PUSH2 0x10DB DUP3 PUSH2 0x9DB JUMP JUMPDEST PUSH8 0xFFFFFFFFFFFFFFFF DUP2 GT ISZERO PUSH2 0x10F4 JUMPI PUSH2 0x10F3 PUSH2 0xBD0 JUMP JUMPDEST JUMPDEST PUSH2 0x10FE DUP3 SLOAD PUSH2 0xE48 JUMP JUMPDEST PUSH2 0x1109 DUP3 DUP3 DUP6 PUSH2 0x1049 JUMP JUMPDEST PUSH0 PUSH1 0x20 SWAP1 POP PUSH1 0x1F DUP4 GT PUSH1 0x1 DUP2 EQ PUSH2 0x113A JUMPI PUSH0 DUP5 ISZERO PUSH2 0x1128 JUMPI DUP3 DUP8 ADD MLOAD SWAP1 POP JUMPDEST PUSH2 0x1132 DUP6 DUP3 PUSH2 0x10B7 JUMP JUMPDEST DUP7 SSTORE POP PUSH2 0x1199 JUMP JUMPDEST PUSH1 0x1F NOT DUP5 AND PUSH2 0x1148 DUP7 PUSH2 0xF35 JUMP JUMPDEST PUSH0 JUMPDEST DUP3 DUP2 LT ISZERO PUSH2 0x116F JUMPI DUP5 DUP10 ADD MLOAD DUP3 SSTORE PUSH1 0x1 DUP3 ADD SWAP2 POP PUSH1 0x20 DUP6 ADD SWAP5 POP PUSH1 0x20 DUP2 ADD SWAP1 POP PUSH2 0x114A JUMP JUMPDEST DUP7 DUP4 LT ISZERO PUSH2 0x118C JUMPI DUP5 DUP10 ADD MLOAD PUSH2 0x1188 PUSH1 0x1F DUP10 AND DUP3 PUSH2 0x109B JUMP JUMPDEST DUP4 SSTORE POP JUMPDEST PUSH1 0x1 PUSH1 0x2 DUP9 MUL ADD DUP9 SSTORE POP POP POP JUMPDEST POP POP POP POP POP POP JUMP INVALID LOG2 PUSH5 0x6970667358 0x22 SLT KECCAK256 DUP11 DUP4 0x25 0xDB PUSH6 0x3CA28172951F 0xD7 0xCB 0xAE PUSH9 0xCD7789C2F3A40D0BD4 DUP4 0x1E PC CHAINID DUP5 SIGNEXTEND DUP3 SWAP1 PUSH5 0x736F6C6343 STOP ADDMOD EQ STOP CALLER "
				},
				"gasEstimates": {
					"creation": {
						"codeDepositCost": "913400",
						"executionCost": "946",
						"totalCost": "914346"
					},
					"external": {
						"createTodo(string)": "infinite",
						"getUserTodos()": "infinite",
						"isUserRegistered(address)": "2904",
						"registerUser()": "52378",
						"toggleTodoCompleted(uint256)": "infinite"
					}
				},
				"methodIdentifiers": {
					"createTodo(string)": "e34f1221",
					"getUserTodos()": "5de2fa75",
					"isUserRegistered(address)": "163f7522",
					"registerUser()": "4d3820eb",
					"toggleTodoCompleted(uint256)": "a8cb5705"
				}
			},
			"storageLayout": {
				"storage": [
					{
						"astId": 18,
						"contract": "contracts/Todo.sol:TodoApp",
						"label": "users",
						"offset": 0,
						"slot": "0",
						"type": "t_mapping(t_address,t_struct(User)6_storage)"
					},
					{
						"astId": 24,
						"contract": "contracts/Todo.sol:TodoApp",
						"label": "userTodos",
						"offset": 0,
						"slot": "1",
						"type": "t_mapping(t_address,t_array(t_struct(Todo)13_storage)dyn_storage)"
					}
				],
				"types": {
					"t_address": {
						"encoding": "inplace",
						"label": "address",
						"numberOfBytes": "20"
					},
					"t_array(t_struct(Todo)13_storage)dyn_storage": {
						"base": "t_struct(Todo)13_storage",
						"encoding": "dynamic_array",
						"label": "struct TodoApp.Todo[]",
						"numberOfBytes": "32"
					},
					"t_bool": {
						"encoding": "inplace",
						"label": "bool",
						"numberOfBytes": "1"
					},
					"t_mapping(t_address,t_array(t_struct(Todo)13_storage)dyn_storage)": {
						"encoding": "mapping",
						"key": "t_address",
						"label": "mapping(address => struct TodoApp.Todo[])",
						"numberOfBytes": "32",
						"value": "t_array(t_struct(Todo)13_storage)dyn_storage"
					},
					"t_mapping(t_address,t_struct(User)6_storage)": {
						"encoding": "mapping",
						"key": "t_address",
						"label": "mapping(address => struct TodoApp.User)",
						"numberOfBytes": "32",
						"value": "t_struct(User)6_storage"
					},
					"t_string_storage": {
						"encoding": "bytes",
						"label": "string",
						"numberOfBytes": "32"
					},
					"t_struct(Todo)13_storage": {
						"encoding": "inplace",
						"label": "struct TodoApp.Todo",
						"members": [
							{
								"astId": 8,
								"contract": "contracts/Todo.sol:TodoApp",
								"label": "id",
								"offset": 0,
								"slot": "0",
								"type": "t_uint256"
							},
							{
								"astId": 10,
								"contract": "contracts/Todo.sol:TodoApp",
								"label": "content",
								"offset": 0,
								"slot": "1",
								"type": "t_string_storage"
							},
							{
								"astId": 12,
								"contract": "contracts/Todo.sol:TodoApp",
								"label": "completed",
								"offset": 0,
								"slot": "2",
								"type": "t_bool"
							}
						],
						"numberOfBytes": "96"
					},
					"t_struct(User)6_storage": {
						"encoding": "inplace",
						"label": "struct TodoApp.User",
						"members": [
							{
								"astId": 3,
								"contract": "contracts/Todo.sol:TodoApp",
								"label": "walletAddress",
								"offset": 0,
								"slot": "0",
								"type": "t_address"
							},
							{
								"astId": 5,
								"contract": "contracts/Todo.sol:TodoApp",
								"label": "isRegistered",
								"offset": 20,
								"slot": "0",
								"type": "t_bool"
							}
						],
						"numberOfBytes": "32"
					},
					"t_uint256": {
						"encoding": "inplace",
						"label": "uint256",
						"numberOfBytes": "32"
					}
				}
			},
			"userdoc": {
				"kind": "user",
				"methods": {},
				"version": 1
			}
		}
	}
}